{
  "contractName": "KittyMarketplace",
  "abi": [
    {
      "anonymous": false,
      "inputs": [
        {
          "indexed": true,
          "internalType": "address",
          "name": "_owner",
          "type": "address"
        },
        {
          "indexed": true,
          "internalType": "address",
          "name": "_approved",
          "type": "address"
        },
        {
          "indexed": true,
          "internalType": "uint256",
          "name": "_tokenId",
          "type": "uint256"
        }
      ],
      "name": "Approval",
      "type": "event"
    },
    {
      "anonymous": false,
      "inputs": [
        {
          "indexed": true,
          "internalType": "address",
          "name": "_owner",
          "type": "address"
        },
        {
          "indexed": true,
          "internalType": "address",
          "name": "_operator",
          "type": "address"
        },
        {
          "indexed": false,
          "internalType": "bool",
          "name": "_approved",
          "type": "bool"
        }
      ],
      "name": "ApprovalForAll",
      "type": "event"
    },
    {
      "anonymous": false,
      "inputs": [
        {
          "indexed": false,
          "internalType": "address",
          "name": "owner",
          "type": "address"
        },
        {
          "indexed": false,
          "internalType": "uint256",
          "name": "kittenId",
          "type": "uint256"
        },
        {
          "indexed": false,
          "internalType": "uint256",
          "name": "matronId",
          "type": "uint256"
        },
        {
          "indexed": false,
          "internalType": "uint256",
          "name": "sireId",
          "type": "uint256"
        },
        {
          "indexed": false,
          "internalType": "uint256",
          "name": "genes",
          "type": "uint256"
        }
      ],
      "name": "Birth",
      "type": "event"
    },
    {
      "anonymous": false,
      "inputs": [
        {
          "indexed": false,
          "internalType": "string",
          "name": "TxType",
          "type": "string"
        },
        {
          "indexed": false,
          "internalType": "address",
          "name": "owner",
          "type": "address"
        },
        {
          "indexed": false,
          "internalType": "uint256",
          "name": "tokenId",
          "type": "uint256"
        }
      ],
      "name": "MarketTransaction",
      "type": "event"
    },
    {
      "anonymous": false,
      "inputs": [
        {
          "indexed": true,
          "internalType": "address",
          "name": "_from",
          "type": "address"
        },
        {
          "indexed": true,
          "internalType": "address",
          "name": "_to",
          "type": "address"
        },
        {
          "indexed": true,
          "internalType": "uint256",
          "name": "_tokenId",
          "type": "uint256"
        }
      ],
      "name": "Transfer",
      "type": "event"
    },
    {
      "inputs": [
        {
          "internalType": "address",
          "name": "_approved",
          "type": "address"
        },
        {
          "internalType": "uint256",
          "name": "_tokenId",
          "type": "uint256"
        }
      ],
      "name": "approve",
      "outputs": [],
      "stateMutability": "nonpayable",
      "type": "function"
    },
    {
      "inputs": [
        {
          "internalType": "address",
          "name": "",
          "type": "address"
        },
        {
          "internalType": "address",
          "name": "",
          "type": "address"
        }
      ],
      "name": "approvedOperator",
      "outputs": [
        {
          "internalType": "bool",
          "name": "",
          "type": "bool"
        }
      ],
      "stateMutability": "view",
      "type": "function"
    },
    {
      "inputs": [
        {
          "internalType": "address",
          "name": "_owner",
          "type": "address"
        }
      ],
      "name": "balanceOf",
      "outputs": [
        {
          "internalType": "uint256",
          "name": "",
          "type": "uint256"
        }
      ],
      "stateMutability": "view",
      "type": "function"
    },
    {
      "inputs": [
        {
          "internalType": "uint256",
          "name": "_tokenId",
          "type": "uint256"
        }
      ],
      "name": "getApproved",
      "outputs": [
        {
          "internalType": "address",
          "name": "",
          "type": "address"
        }
      ],
      "stateMutability": "view",
      "type": "function"
    },
    {
      "inputs": [
        {
          "internalType": "uint256",
          "name": "_id",
          "type": "uint256"
        }
      ],
      "name": "getKitty",
      "outputs": [
        {
          "internalType": "uint256",
          "name": "genes",
          "type": "uint256"
        },
        {
          "internalType": "uint256",
          "name": "birthTime",
          "type": "uint256"
        },
        {
          "internalType": "uint256",
          "name": "matronId",
          "type": "uint256"
        },
        {
          "internalType": "uint256",
          "name": "sireId",
          "type": "uint256"
        },
        {
          "internalType": "uint256",
          "name": "generation",
          "type": "uint256"
        }
      ],
      "stateMutability": "view",
      "type": "function"
    },
    {
      "inputs": [
        {
          "internalType": "address",
          "name": "_owner",
          "type": "address"
        }
      ],
      "name": "getOwnerTokens",
      "outputs": [
        {
          "internalType": "uint256[]",
          "name": "ownerTokens",
          "type": "uint256[]"
        }
      ],
      "stateMutability": "view",
      "type": "function"
    },
    {
      "inputs": [
        {
          "internalType": "address",
          "name": "_owner",
          "type": "address"
        },
        {
          "internalType": "address",
          "name": "_operator",
          "type": "address"
        }
      ],
      "name": "isApprovedForAll",
      "outputs": [
        {
          "internalType": "bool",
          "name": "",
          "type": "bool"
        }
      ],
      "stateMutability": "view",
      "type": "function"
    },
    {
      "inputs": [
        {
          "internalType": "uint256",
          "name": "",
          "type": "uint256"
        }
      ],
      "name": "kittyIndexToApproved",
      "outputs": [
        {
          "internalType": "address",
          "name": "",
          "type": "address"
        }
      ],
      "stateMutability": "view",
      "type": "function"
    },
    {
      "inputs": [],
      "name": "name",
      "outputs": [
        {
          "internalType": "string",
          "name": "",
          "type": "string"
        }
      ],
      "stateMutability": "view",
      "type": "function"
    },
    {
      "inputs": [
        {
          "internalType": "uint256",
          "name": "",
          "type": "uint256"
        }
      ],
      "name": "ownedBy",
      "outputs": [
        {
          "internalType": "address",
          "name": "",
          "type": "address"
        }
      ],
      "stateMutability": "view",
      "type": "function"
    },
    {
      "inputs": [
        {
          "internalType": "uint256",
          "name": "_tokenId",
          "type": "uint256"
        }
      ],
      "name": "ownerOf",
      "outputs": [
        {
          "internalType": "address",
          "name": "",
          "type": "address"
        }
      ],
      "stateMutability": "view",
      "type": "function"
    },
    {
      "inputs": [
        {
          "internalType": "address",
          "name": "",
          "type": "address"
        }
      ],
      "name": "ownershipTokenCount",
      "outputs": [
        {
          "internalType": "uint256",
          "name": "",
          "type": "uint256"
        }
      ],
      "stateMutability": "view",
      "type": "function"
    },
    {
      "inputs": [
        {
          "internalType": "address",
          "name": "_from",
          "type": "address"
        },
        {
          "internalType": "address",
          "name": "_to",
          "type": "address"
        },
        {
          "internalType": "uint256",
          "name": "_tokenId",
          "type": "uint256"
        },
        {
          "internalType": "bytes",
          "name": "data",
          "type": "bytes"
        }
      ],
      "name": "safeTransferFrom",
      "outputs": [],
      "stateMutability": "nonpayable",
      "type": "function"
    },
    {
      "inputs": [
        {
          "internalType": "address",
          "name": "_operator",
          "type": "address"
        },
        {
          "internalType": "bool",
          "name": "_approved",
          "type": "bool"
        }
      ],
      "name": "setApprovalForAll",
      "outputs": [],
      "stateMutability": "nonpayable",
      "type": "function"
    },
    {
      "inputs": [
        {
          "internalType": "bytes4",
          "name": "_interfaceId",
          "type": "bytes4"
        }
      ],
      "name": "supportsInterface",
      "outputs": [
        {
          "internalType": "bool",
          "name": "",
          "type": "bool"
        }
      ],
      "stateMutability": "pure",
      "type": "function"
    },
    {
      "inputs": [],
      "name": "symbol",
      "outputs": [
        {
          "internalType": "string",
          "name": "",
          "type": "string"
        }
      ],
      "stateMutability": "view",
      "type": "function"
    },
    {
      "inputs": [
        {
          "internalType": "uint256",
          "name": "",
          "type": "uint256"
        }
      ],
      "name": "tokenIdToOffer",
      "outputs": [
        {
          "internalType": "address payable",
          "name": "seller",
          "type": "address"
        },
        {
          "internalType": "uint256",
          "name": "price",
          "type": "uint256"
        },
        {
          "internalType": "uint256",
          "name": "tokenId",
          "type": "uint256"
        },
        {
          "internalType": "bool",
          "name": "active",
          "type": "bool"
        }
      ],
      "stateMutability": "view",
      "type": "function"
    },
    {
      "inputs": [],
      "name": "totalSupply",
      "outputs": [
        {
          "internalType": "uint256",
          "name": "",
          "type": "uint256"
        }
      ],
      "stateMutability": "view",
      "type": "function"
    },
    {
      "inputs": [
        {
          "internalType": "address",
          "name": "_to",
          "type": "address"
        },
        {
          "internalType": "uint256",
          "name": "_tokenId",
          "type": "uint256"
        }
      ],
      "name": "transfer",
      "outputs": [],
      "stateMutability": "nonpayable",
      "type": "function"
    },
    {
      "inputs": [
        {
          "internalType": "address",
          "name": "_from",
          "type": "address"
        },
        {
          "internalType": "address",
          "name": "_to",
          "type": "address"
        },
        {
          "internalType": "uint256",
          "name": "_tokenId",
          "type": "uint256"
        }
      ],
      "name": "transferFrom",
      "outputs": [],
      "stateMutability": "nonpayable",
      "type": "function"
    },
    {
      "inputs": [
        {
          "internalType": "uint256",
          "name": "_tokenId",
          "type": "uint256"
        }
      ],
      "name": "getOffer",
      "outputs": [
        {
          "internalType": "address",
          "name": "seller",
          "type": "address"
        },
        {
          "internalType": "uint256",
          "name": "price",
          "type": "uint256"
        },
        {
          "internalType": "uint256",
          "name": "tokenId",
          "type": "uint256"
        },
        {
          "internalType": "bool",
          "name": "active",
          "type": "bool"
        }
      ],
      "stateMutability": "view",
      "type": "function"
    },
    {
      "inputs": [],
      "name": "getAllTokenOnSale",
      "outputs": [
        {
          "internalType": "uint256[]",
          "name": "",
          "type": "uint256[]"
        }
      ],
      "stateMutability": "view",
      "type": "function"
    },
    {
      "inputs": [
        {
          "internalType": "uint256",
          "name": "_price",
          "type": "uint256"
        },
        {
          "internalType": "uint256",
          "name": "_tokenId",
          "type": "uint256"
        }
      ],
      "name": "setOffer",
      "outputs": [],
      "stateMutability": "nonpayable",
      "type": "function"
    },
    {
      "inputs": [
        {
          "internalType": "uint256",
          "name": "_tokenId",
          "type": "uint256"
        }
      ],
      "name": "removeOffer",
      "outputs": [],
      "stateMutability": "nonpayable",
      "type": "function"
    },
    {
      "inputs": [
        {
          "internalType": "uint256",
          "name": "_tokenId",
          "type": "uint256"
        }
      ],
      "name": "buyKitty",
      "outputs": [],
      "stateMutability": "payable",
      "type": "function"
    }
  ],
  "bytecode": "0x608060405234801561001057600080fd5b5061339d806100206000396000f3fe6080604052600436106101665760003560e01c8063941b055b116100d1578063ae5310f61161008a578063d531fe2b11610064578063d531fe2b1461057a578063d63d4af0146105ba578063e985e9c5146105f7578063e98b7f4d1461063457610166565b8063ae5310f6146104f8578063b88d4fde14610514578063cec21acb1461053d57610166565b8063941b055b146103ec57806395a0f9c71461041557806395d89b411461043e578063a22cb46514610469578063a613e0e714610492578063a9059cbb146104cf57610166565b806323b872dd1161012357806323b872dd146102a15780634579268a146102ca578063481af3d31461030a57806349b3709f146103475780636352211e1461037257806370a08231146103af57610166565b806301ffc9a71461016b57806304a153ab146101a857806306fdde03146101e5578063081812fc14610210578063095ea7b31461024d57806318160ddd14610276575b600080fd5b34801561017757600080fd5b50610192600480360381019061018d9190612674565b610675565b60405161019f9190612e2f565b60405180910390f35b3480156101b457600080fd5b506101cf60048036038101906101ca91906124f1565b610715565b6040516101dc9190612e2f565b60405180910390f35b3480156101f157600080fd5b506101fa610744565b6040516102079190612e4a565b60405180910390f35b34801561021c57600080fd5b50610237600480360381019061023291906126c6565b61077d565b6040516102449190612d1c565b60405180910390f35b34801561025957600080fd5b50610274600480360381019061026f9190612638565b610800565b005b34801561028257600080fd5b5061028b61093e565b60405161029891906130c0565b60405180910390f35b3480156102ad57600080fd5b506102c860048036038101906102c3919061252d565b61094a565b005b3480156102d657600080fd5b506102f160048036038101906102ec91906126c6565b6109c5565b6040516103019493929190612dc8565b60405180910390f35b34801561031657600080fd5b50610331600480360381019061032c91906126c6565b610af9565b60405161033e9190612d1c565b60405180910390f35b34801561035357600080fd5b5061035c610b2c565b6040516103699190612e0d565b60405180910390f35b34801561037e57600080fd5b50610399600480360381019061039491906126c6565b610d49565b6040516103a69190612d1c565b60405180910390f35b3480156103bb57600080fd5b506103d660048036038101906103d191906124c8565b610e28565b6040516103e391906130c0565b60405180910390f35b3480156103f857600080fd5b50610413600480360381019061040e91906126ef565b610ee0565b005b34801561042157600080fd5b5061043c600480360381019061043791906126c6565b611154565b005b34801561044a57600080fd5b50610453611329565b6040516104609190612e4a565b60405180910390f35b34801561047557600080fd5b50610490600480360381019061048b91906125fc565b611362565b005b34801561049e57600080fd5b506104b960048036038101906104b491906126c6565b61145f565b6040516104c69190612d1c565b60405180910390f35b3480156104db57600080fd5b506104f660048036038101906104f19190612638565b611492565b005b610512600480360381019061050d91906126c6565b6114b4565b005b34801561052057600080fd5b5061053b6004803603810190610536919061257c565b6116f8565b005b34801561054957600080fd5b50610564600480360381019061055f91906124c8565b6117ba565b60405161057191906130c0565b60405180910390f35b34801561058657600080fd5b506105a1600480360381019061059c91906126c6565b6117d2565b6040516105b19493929190612d37565b60405180910390f35b3480156105c657600080fd5b506105e160048036038101906105dc91906124c8565b61182f565b6040516105ee9190612e0d565b60405180910390f35b34801561060357600080fd5b5061061e600480360381019061061991906124f1565b611a26565b60405161062b9190612e2f565b60405180910390f35b34801561064057600080fd5b5061065b600480360381019061065691906126c6565b611b99565b60405161066c9594939291906130db565b60405180910390f35b60006380ac58cd60e01b7bffffffffffffffffffffffffffffffffffffffffffffffffffffffff1916827bffffffffffffffffffffffffffffffffffffffffffffffffffffffff1916148061070e57506301ffc9a760e01b7bffffffffffffffffffffffffffffffffffffffffffffffffffffffff1916827bffffffffffffffffffffffffffffffffffffffffffffffffffffffff1916145b9050919050565b60046020528160005260406000206020528060005260406000206000915091509054906101000a900460ff1681565b6040518060400160405280600e81526020017f546865506f7765724f664d656f7700000000000000000000000000000000000081525081565b6000808054905082106107c5576040517f08c379a00000000000000000000000000000000000000000000000000000000081526004016107bc90612f2c565b60405180910390fd5b6003600083815260200190815260200160002060009054906101000a900473ffffffffffffffffffffffffffffffffffffffff169050919050565b61080a3382611cda565b8061081b575061081a3382611d46565b5b61085a576040517f08c379a000000000000000000000000000000000000000000000000000000000815260040161085190613060565b60405180910390fd5b816003600083815260200190815260200160002060006101000a81548173ffffffffffffffffffffffffffffffffffffffff021916908373ffffffffffffffffffffffffffffffffffffffff160217905550808273ffffffffffffffffffffffffffffffffffffffff166002600084815260200190815260200160002060009054906101000a900473ffffffffffffffffffffffffffffffffffffffff1673ffffffffffffffffffffffffffffffffffffffff167f8c5be1e5ebec7d5bd14f71427d1e84f3dd0314c0f7b2291e5b200ac8c7c3b92560405160405180910390a45050565b60008080549050905090565b6109543382611cda565b8061096557506109643382611e14565b5b8061097657506109753382611d46565b5b6109b5576040517f08c379a00000000000000000000000000000000000000000000000000000000081526004016109ac90613060565b60405180910390fd5b6109c0838383611e80565b505050565b6000806000806006600086815260200190815260200160002060030160009054906101000a900460ff16610a2e576040517f08c379a0000000000000000000000000000000000000000000000000000000008152600401610a2590612ecc565b60405180910390fd5b6000600660008781526020019081526020016000206040518060800160405290816000820160009054906101000a900473ffffffffffffffffffffffffffffffffffffffff1673ffffffffffffffffffffffffffffffffffffffff1673ffffffffffffffffffffffffffffffffffffffff16815260200160018201548152602001600282015481526020016003820160009054906101000a900460ff161515151581525050905080600001518160200151826040015183606001519450945094509450509193509193565b60036020528060005260406000206000915054906101000a900473ffffffffffffffffffffffffffffffffffffffff1681565b6060600060058054905090506000811415610bb957600067ffffffffffffffff811115610b82577f4e487b7100000000000000000000000000000000000000000000000000000000600052604160045260246000fd5b604051908082528060200260200182016040528015610bb05781602001602082028036833780820191505090505b50915050610d46565b60008167ffffffffffffffff811115610bfb577f4e487b7100000000000000000000000000000000000000000000000000000000600052604160045260246000fd5b604051908082528060200260200182016040528015610c295781602001602082028036833780820191505090505b50905060005b600580549050811015610d3f5760058181548110610c76577f4e487b7100000000000000000000000000000000000000000000000000000000600052603260045260246000fd5b906000526020600020906004020160030160009054906101000a900460ff1615610d2c5760058181548110610cd4577f4e487b7100000000000000000000000000000000000000000000000000000000600052603260045260246000fd5b906000526020600020906004020160020154828281518110610d1f577f4e487b7100000000000000000000000000000000000000000000000000000000600052603260045260246000fd5b6020026020010181815250505b8080610d3790613282565b915050610c2f565b5080925050505b90565b60008073ffffffffffffffffffffffffffffffffffffffff166002600084815260200190815260200160002060009054906101000a900473ffffffffffffffffffffffffffffffffffffffff1673ffffffffffffffffffffffffffffffffffffffff161415610ded576040517f08c379a0000000000000000000000000000000000000000000000000000000008152600401610de490612e8c565b60405180910390fd5b6002600083815260200190815260200160002060009054906101000a900473ffffffffffffffffffffffffffffffffffffffff169050919050565b60008073ffffffffffffffffffffffffffffffffffffffff168273ffffffffffffffffffffffffffffffffffffffff161415610e99576040517f08c379a0000000000000000000000000000000000000000000000000000000008152600401610e9090612eac565b60405180910390fd5b600160008373ffffffffffffffffffffffffffffffffffffffff1673ffffffffffffffffffffffffffffffffffffffff168152602001908152602001600020549050919050565b610eea3382611cda565b610f29576040517f08c379a0000000000000000000000000000000000000000000000000000000008152600401610f2090613004565b60405180910390fd5b600015156006600083815260200190815260200160002060030160009054906101000a900460ff16151514610f93576040517f08c379a0000000000000000000000000000000000000000000000000000000008152600401610f8a90613080565b60405180910390fd5b610f9d3082610800565b600060405180608001604052803373ffffffffffffffffffffffffffffffffffffffff168152602001848152602001838152602001600115158152509050600581908060018154018082558091505060019003906000526020600020906004020160009091909190915060008201518160000160006101000a81548173ffffffffffffffffffffffffffffffffffffffff021916908373ffffffffffffffffffffffffffffffffffffffff160217905550602082015181600101556040820151816002015560608201518160030160006101000a81548160ff0219169083151502179055505050806006600084815260200190815260200160002060008201518160000160006101000a81548173ffffffffffffffffffffffffffffffffffffffff021916908373ffffffffffffffffffffffffffffffffffffffff160217905550602082015181600101556040820151816002015560608201518160030160006101000a81548160ff0219169083151502179055509050507fd99e4fad9ad6313b1feb588fa8e605e3a9873172f2024330c35dd2b4041a43863383604051611147929190612f6c565b60405180910390a1505050565b61115e3382611cda565b61119d576040517f08c379a000000000000000000000000000000000000000000000000000000000815260040161119490612eec565b60405180910390fd5b6000600660008381526020019081526020016000206040518060800160405290816000820160009054906101000a900473ffffffffffffffffffffffffffffffffffffffff1673ffffffffffffffffffffffffffffffffffffffff1673ffffffffffffffffffffffffffffffffffffffff16815260200160018201548152602001600282015481526020016003820160009054906101000a900460ff1615151515815250509050600081606001901515908115158152505060066000838152602001908152602001600020600080820160006101000a81549073ffffffffffffffffffffffffffffffffffffffff0219169055600182016000905560028201600090556003820160006101000a81549060ff021916905550506003600083815260200190815260200160002060006101000a81549073ffffffffffffffffffffffffffffffffffffffff02191690557fd99e4fad9ad6313b1feb588fa8e605e3a9873172f2024330c35dd2b4041a4386338360405161131d929190613024565b60405180910390a15050565b6040518060400160405280600481526020017f4d454f570000000000000000000000000000000000000000000000000000000081525081565b80600460003373ffffffffffffffffffffffffffffffffffffffff1673ffffffffffffffffffffffffffffffffffffffff16815260200190815260200160002060008473ffffffffffffffffffffffffffffffffffffffff1673ffffffffffffffffffffffffffffffffffffffff16815260200190815260200160002060006101000a81548160ff0219169083151502179055508173ffffffffffffffffffffffffffffffffffffffff163373ffffffffffffffffffffffffffffffffffffffff167f17307eab39ab6107e8899845ad3d59bd9653f200f220920489ca2b5937696c31836040516114539190612e2f565b60405180910390a35050565b60026020528060005260406000206000915054906101000a900473ffffffffffffffffffffffffffffffffffffffff1681565b61149c3382611cda565b6114a557600080fd5b6114b0338383611e80565b5050565b6000600660008381526020019081526020016000206040518060800160405290816000820160009054906101000a900473ffffffffffffffffffffffffffffffffffffffff1673ffffffffffffffffffffffffffffffffffffffff1673ffffffffffffffffffffffffffffffffffffffff16815260200160018201548152602001600282015481526020016003820160009054906101000a900460ff1615151515815250509050806060015161159f576040517f08c379a0000000000000000000000000000000000000000000000000000000008152600401611596906130a0565b60405180910390fd5b806020015134146115e5576040517f08c379a00000000000000000000000000000000000000000000000000000000081526004016115dc90612f4c565b60405180910390fd5b600081606001901515908115158152505060066000838152602001908152602001600020600080820160006101000a81549073ffffffffffffffffffffffffffffffffffffffff0219169055600182016000905560028201600090556003820160006101000a81549060ff0219169055505061166133836121c5565b806000015173ffffffffffffffffffffffffffffffffffffffff166108fc349081150290604051600060405180830381858888f193505050501580156116ab573d6000803e3d6000fd5b506116bb8160000151338461094a565b7fd99e4fad9ad6313b1feb588fa8e605e3a9873172f2024330c35dd2b4041a438633836040516116ec929190612fa8565b60405180910390a15050565b6117023384611cda565b8061171357506117123384611e14565b5b8061172457506117233384611d46565b5b611763576040517f08c379a000000000000000000000000000000000000000000000000000000000815260040161175a90613060565b60405180910390fd5b6117b385858585858080601f016020809104026020016040519081016040528093929190818152602001838380828437600081840152601f19601f820116905080830192505050505050506122a9565b5050505050565b60016020528060005260406000206000915090505481565b60066020528060005260406000206000915090508060000160009054906101000a900473ffffffffffffffffffffffffffffffffffffffff16908060010154908060020154908060030160009054906101000a900460ff16905084565b6060600061183c83610e28565b905060008114156118bf57600067ffffffffffffffff811115611888577f4e487b7100000000000000000000000000000000000000000000000000000000600052604160045260246000fd5b6040519080825280602002602001820160405280156118b65781602001602082028036833780820191505090505b50915050611a21565b60008167ffffffffffffffff811115611901577f4e487b7100000000000000000000000000000000000000000000000000000000600052604160045260246000fd5b60405190808252806020026020018201604052801561192f5781602001602082028036833780820191505090505b50905060008061193d61093e565b905060005b818111611a18578673ffffffffffffffffffffffffffffffffffffffff166002600083815260200190815260200160002060009054906101000a900473ffffffffffffffffffffffffffffffffffffffff1673ffffffffffffffffffffffffffffffffffffffff161415611a0557808484815181106119ea577f4e487b7100000000000000000000000000000000000000000000000000000000600052603260045260246000fd5b6020026020010181815250508280611a0190613282565b9350505b8080611a1090613282565b915050611942565b83955050505050505b919050565b60008073ffffffffffffffffffffffffffffffffffffffff168273ffffffffffffffffffffffffffffffffffffffff161415611a97576040517f08c379a0000000000000000000000000000000000000000000000000000000008152600401611a8e90612e6c565b60405180910390fd5b600073ffffffffffffffffffffffffffffffffffffffff168373ffffffffffffffffffffffffffffffffffffffff161415611b07576040517f08c379a0000000000000000000000000000000000000000000000000000000008152600401611afe90612e8c565b60405180910390fd5b600460008473ffffffffffffffffffffffffffffffffffffffff1673ffffffffffffffffffffffffffffffffffffffff16815260200190815260200160002060008373ffffffffffffffffffffffffffffffffffffffff1673ffffffffffffffffffffffffffffffffffffffff16815260200190815260200160002060009054906101000a900460ff16905092915050565b60008060008060008060008781548110611bdc577f4e487b7100000000000000000000000000000000000000000000000000000000600052603260045260246000fd5b9060005260206000209060020201905060008160010160009054906101000a900467ffffffffffffffff1667ffffffffffffffff1611611c51576040517f08c379a0000000000000000000000000000000000000000000000000000000008152600401611c4890612f0c565b60405180910390fd5b806000015495508060010160009054906101000a900467ffffffffffffffff1667ffffffffffffffff1694508060010160089054906101000a900463ffffffff1663ffffffff16935080600101600c9054906101000a900463ffffffff1663ffffffff1692508060010160109054906101000a900461ffff1661ffff1691505091939590929450565b60008273ffffffffffffffffffffffffffffffffffffffff166002600084815260200190815260200160002060009054906101000a900473ffffffffffffffffffffffffffffffffffffffff1673ffffffffffffffffffffffffffffffffffffffff1614905092915050565b600060011515600460006002600086815260200190815260200160002060009054906101000a900473ffffffffffffffffffffffffffffffffffffffff1673ffffffffffffffffffffffffffffffffffffffff1673ffffffffffffffffffffffffffffffffffffffff16815260200190815260200160002060008573ffffffffffffffffffffffffffffffffffffffff1673ffffffffffffffffffffffffffffffffffffffff16815260200190815260200160002060009054906101000a900460ff16151514905092915050565b60008273ffffffffffffffffffffffffffffffffffffffff166003600084815260200190815260200160002060009054906101000a900473ffffffffffffffffffffffffffffffffffffffff1673ffffffffffffffffffffffffffffffffffffffff1614905092915050565b600073ffffffffffffffffffffffffffffffffffffffff168273ffffffffffffffffffffffffffffffffffffffff1614158015611ee957503073ffffffffffffffffffffffffffffffffffffffff168273ffffffffffffffffffffffffffffffffffffffff1614155b611f28576040517f08c379a0000000000000000000000000000000000000000000000000000000008152600401611f1f90612fe4565b60405180910390fd5b6000805490508110611f6f576040517f08c379a0000000000000000000000000000000000000000000000000000000008152600401611f6690612f2c565b60405180910390fd5b600160008373ffffffffffffffffffffffffffffffffffffffff1673ffffffffffffffffffffffffffffffffffffffff1681526020019081526020016000206000815480929190611fbf90613282565b9190505550600073ffffffffffffffffffffffffffffffffffffffff168373ffffffffffffffffffffffffffffffffffffffff161461208457600160008473ffffffffffffffffffffffffffffffffffffffff1673ffffffffffffffffffffffffffffffffffffffff168152602001908152602001600020600081548092919061204890613258565b91905055506003600082815260200190815260200160002060006101000a81549073ffffffffffffffffffffffffffffffffffffffff02191690555b816002600083815260200190815260200160002060006101000a81548173ffffffffffffffffffffffffffffffffffffffff021916908373ffffffffffffffffffffffffffffffffffffffff160217905550808273ffffffffffffffffffffffffffffffffffffffff168473ffffffffffffffffffffffffffffffffffffffff167fddf252ad1be2c89b69c2b068fc378daa952ba7f163c4a11628f55a4df523b3ef60405160405180910390a480600073ffffffffffffffffffffffffffffffffffffffff166002600084815260200190815260200160002060009054906101000a900473ffffffffffffffffffffffffffffffffffffffff1673ffffffffffffffffffffffffffffffffffffffff167f8c5be1e5ebec7d5bd14f71427d1e84f3dd0314c0f7b2291e5b200ac8c7c3b92560405160405180910390a4505050565b816003600083815260200190815260200160002060006101000a81548173ffffffffffffffffffffffffffffffffffffffff021916908373ffffffffffffffffffffffffffffffffffffffff160217905550808273ffffffffffffffffffffffffffffffffffffffff166002600084815260200190815260200160002060009054906101000a900473ffffffffffffffffffffffffffffffffffffffff1673ffffffffffffffffffffffffffffffffffffffff167f8c5be1e5ebec7d5bd14f71427d1e84f3dd0314c0f7b2291e5b200ac8c7c3b92560405160405180910390a45050565b6122b38483611cda565b6122bc57600080fd5b6122c7848484611e80565b6122d3848484846122e2565b6122dc57600080fd5b50505050565b60006122ed846123fc565b6122fa57600190506123f4565b60008473ffffffffffffffffffffffffffffffffffffffff1663150b7a02338887876040518563ffffffff1660e01b815260040161233b9493929190612d7c565b602060405180830381600087803b15801561235557600080fd5b505af1158015612369573d6000803e3d6000fd5b505050506040513d601f19601f8201168201806040525081019061238d919061269d565b90507f150b7a023d4804d13e8c85fb27262cb750cf6ba9f9dd3bb30d90f482ceeb4b1f7bffffffffffffffffffffffffffffffffffffffffffffffffffffffff1916817bffffffffffffffffffffffffffffffffffffffffffffffffffffffff1916149150505b949350505050565b600080823b905060008163ffffffff1611915050919050565b6000813590506124248161330b565b92915050565b60008135905061243981613322565b92915050565b60008135905061244e81613339565b92915050565b60008151905061246381613339565b92915050565b60008083601f84011261247b57600080fd5b8235905067ffffffffffffffff81111561249457600080fd5b6020830191508360018202830111156124ac57600080fd5b9250929050565b6000813590506124c281613350565b92915050565b6000602082840312156124da57600080fd5b60006124e884828501612415565b91505092915050565b6000806040838503121561250457600080fd5b600061251285828601612415565b925050602061252385828601612415565b9150509250929050565b60008060006060848603121561254257600080fd5b600061255086828701612415565b935050602061256186828701612415565b9250506040612572868287016124b3565b9150509250925092565b60008060008060006080868803121561259457600080fd5b60006125a288828901612415565b95505060206125b388828901612415565b94505060406125c4888289016124b3565b935050606086013567ffffffffffffffff8111156125e157600080fd5b6125ed88828901612469565b92509250509295509295909350565b6000806040838503121561260f57600080fd5b600061261d85828601612415565b925050602061262e8582860161242a565b9150509250929050565b6000806040838503121561264b57600080fd5b600061265985828601612415565b925050602061266a858286016124b3565b9150509250929050565b60006020828403121561268657600080fd5b60006126948482850161243f565b91505092915050565b6000602082840312156126af57600080fd5b60006126bd84828501612454565b91505092915050565b6000602082840312156126d857600080fd5b60006126e6848285016124b3565b91505092915050565b6000806040838503121561270257600080fd5b6000612710858286016124b3565b9250506020612721858286016124b3565b9150509250929050565b60006127378383612cfe565b60208301905092915050565b61274c816131b1565b82525050565b61275b8161319f565b82525050565b600061276c8261313e565b612776818561316c565b93506127818361312e565b8060005b838110156127b2578151612799888261272b565b97506127a48361315f565b925050600181019050612785565b5085935050505092915050565b6127c8816131c3565b82525050565b60006127d982613149565b6127e3818561317d565b93506127f3818560208601613225565b6127fc816132fa565b840191505092915050565b600061281282613154565b61281c818561318e565b935061282c818560208601613225565b612835816132fa565b840191505092915050565b600061284d602d8361318e565b91507f5a65726f20616464726573732063616e6e6f7420626520616e20617574686f7260008301527f697a6564206f70657261746f72000000000000000000000000000000000000006020830152604082019050919050565b60006128b3601e8361318e565b91507f5a65726f20616464726573732063616e6e6f74206f776e20746f6b656e7300006000830152602082019050919050565b60006128f3601f8361318e565b91507f5a65726f2061646472657373206973206e6f742076616c6964206f776e6572006000830152602082019050919050565b600061293360278361318e565b91507f5468657265206973206e6f20616374697665206f6666657220666f722074686960008301527f73206b69747479000000000000000000000000000000000000000000000000006020830152604082019050919050565b600061299960288361318e565b91507f596f75206d75737420626520746865206f776e657220746f2072656d6f76652060008301527f616e206f666665720000000000000000000000000000000000000000000000006020830152604082019050919050565b60006129ff60148361318e565b91507f546f6b656e20646f6573206e6f742065786973740000000000000000000000006000830152602082019050919050565b6000612a3f60108361318e565b91507f496e76616c696420546f6b656e204944000000000000000000000000000000006000830152602082019050919050565b6000612a7f601c8361318e565b91507f5472616e7366657220616d6f756e7420697320696e636f7272656374000000006000830152602082019050919050565b6000612abf600c8361318e565b91507f437265617465206f6666657200000000000000000000000000000000000000006000830152602082019050919050565b6000612aff60038361318e565b91507f42757900000000000000000000000000000000000000000000000000000000006000830152602082019050919050565b6000612b3f60198361318e565b91507f496e76616c696420726563697069656e742061646472657373000000000000006000830152602082019050919050565b6000612b7f60288361318e565b91507f596f75206d75737420626520746865206f776e657220746f206372656174652060008301527f616e206f666665720000000000000000000000000000000000000000000000006020830152604082019050919050565b6000612be5600c8361318e565b91507f52656d6f7665206f6666657200000000000000000000000000000000000000006000830152602082019050919050565b6000612c2560108361318e565b91507f496e76616c6964206f70657261746f72000000000000000000000000000000006000830152602082019050919050565b6000612c65602f8361318e565b91507f546865726520697320616c726561647920616e20616374697665206f6666657260008301527f20666f722074686973206b6974747900000000000000000000000000000000006020830152604082019050919050565b6000612ccb601a8361318e565b91507f54686973206b69747479206973206e6f7420666f722073616c650000000000006000830152602082019050919050565b612d078161321b565b82525050565b612d168161321b565b82525050565b6000602082019050612d316000830184612752565b92915050565b6000608082019050612d4c6000830187612743565b612d596020830186612d0d565b612d666040830185612d0d565b612d7360608301846127bf565b95945050505050565b6000608082019050612d916000830187612752565b612d9e6020830186612752565b612dab6040830185612d0d565b8181036060830152612dbd81846127ce565b905095945050505050565b6000608082019050612ddd6000830187612752565b612dea6020830186612d0d565b612df76040830185612d0d565b612e0460608301846127bf565b95945050505050565b60006020820190508181036000830152612e278184612761565b905092915050565b6000602082019050612e4460008301846127bf565b92915050565b60006020820190508181036000830152612e648184612807565b905092915050565b60006020820190508181036000830152612e8581612840565b9050919050565b60006020820190508181036000830152612ea5816128a6565b9050919050565b60006020820190508181036000830152612ec5816128e6565b9050919050565b60006020820190508181036000830152612ee581612926565b9050919050565b60006020820190508181036000830152612f058161298c565b9050919050565b60006020820190508181036000830152612f25816129f2565b9050919050565b60006020820190508181036000830152612f4581612a32565b9050919050565b60006020820190508181036000830152612f6581612a72565b9050919050565b60006060820190508181036000830152612f8581612ab2565b9050612f946020830185612752565b612fa16040830184612d0d565b9392505050565b60006060820190508181036000830152612fc181612af2565b9050612fd06020830185612752565b612fdd6040830184612d0d565b9392505050565b60006020820190508181036000830152612ffd81612b32565b9050919050565b6000602082019050818103600083015261301d81612b72565b9050919050565b6000606082019050818103600083015261303d81612bd8565b905061304c6020830185612752565b6130596040830184612d0d565b9392505050565b6000602082019050818103600083015261307981612c18565b9050919050565b6000602082019050818103600083015261309981612c58565b9050919050565b600060208201905081810360008301526130b981612cbe565b9050919050565b60006020820190506130d56000830184612d0d565b92915050565b600060a0820190506130f06000830188612d0d565b6130fd6020830187612d0d565b61310a6040830186612d0d565b6131176060830185612d0d565b6131246080830184612d0d565b9695505050505050565b6000819050602082019050919050565b600081519050919050565b600081519050919050565b600081519050919050565b6000602082019050919050565b600082825260208201905092915050565b600082825260208201905092915050565b600082825260208201905092915050565b60006131aa826131fb565b9050919050565b60006131bc826131fb565b9050919050565b60008115159050919050565b60007fffffffff0000000000000000000000000000000000000000000000000000000082169050919050565b600073ffffffffffffffffffffffffffffffffffffffff82169050919050565b6000819050919050565b60005b83811015613243578082015181840152602081019050613228565b83811115613252576000848401525b50505050565b60006132638261321b565b91506000821415613277576132766132cb565b5b600182039050919050565b600061328d8261321b565b91507fffffffffffffffffffffffffffffffffffffffffffffffffffffffffffffffff8214156132c0576132bf6132cb565b5b600182019050919050565b7f4e487b7100000000000000000000000000000000000000000000000000000000600052601160045260246000fd5b6000601f19601f8301169050919050565b6133148161319f565b811461331f57600080fd5b50565b61332b816131c3565b811461333657600080fd5b50565b613342816131cf565b811461334d57600080fd5b50565b6133598161321b565b811461336457600080fd5b5056fea26469706673582212209058b1444627e23b5170eb91b4f69891df8537a7f375621375fb16505246d7bc64736f6c63430008000033",
  "immutableReferences": {},
  "source": "pragma solidity 0.8.0;\n\nimport \"./KittyToken.sol\";\n\ncontract KittyMarketplace is KittyToken {\n\n  event MarketTransaction(string TxType, address owner, uint256 tokenId);\n\n  struct Offer {\n    address payable seller;\n    uint256 price;\n    uint256 tokenId;\n    bool active;\n  }\n\n  Offer[] offers;\n\n  mapping(uint256 => Offer) public tokenIdToOffer;\n\n  function getOffer(uint256 _tokenId) public view returns (\n    address seller,\n    uint256 price,\n    uint256 tokenId,\n    bool active) {\n      require(tokenIdToOffer[_tokenId].active, \"There is no active offer for this kitty\");\n      Offer memory offer = tokenIdToOffer[_tokenId];\n      return (offer.seller, offer.price, offer.tokenId, offer.active);\n  }\n\n  function getAllTokenOnSale() public view returns(uint256[] memory) {\n    uint256 totalOffers = offers.length;\n    if(totalOffers == 0) {\n      return new uint256[](0);\n    }\n    uint256[] memory result = new uint256[](totalOffers);\n\n    for(uint256 i = 0; i < offers.length; i++) {\n      if(offers[i].active) {\n        result[i] = offers[i].tokenId;\n      }\n    }\n    return result;\n  }\n\n  function setOffer(uint256 _price, uint256 _tokenId) public {\n    require(_owns(msg.sender, _tokenId), \"You must be the owner to create an offer\");\n    require(tokenIdToOffer[_tokenId].active == false, \"There is already an active offer for this kitty\");\n    approve(address(this), _tokenId);\n\n    Offer memory _offer = Offer({\n      seller: payable(msg.sender),\n      price: _price,\n      tokenId: _tokenId,\n      active: true\n    });\n    offers.push(_offer);\n    tokenIdToOffer[_tokenId] = _offer;\n\n    emit MarketTransaction(\"Create offer\", msg.sender, _tokenId);\n  }\n\n  function removeOffer(uint256 _tokenId) public {\n    require(_owns(msg.sender, _tokenId), \"You must be the owner to remove an offer\");\n\n    Offer memory offerToRemove = tokenIdToOffer[_tokenId];\n    offerToRemove.active = false;\n    delete tokenIdToOffer[_tokenId];\n    delete kittyIndexToApproved[_tokenId];\n\n    emit MarketTransaction(\"Remove offer\", msg.sender, _tokenId);\n  }\n\n  function buyKitty(uint256 _tokenId) public payable {\n    Offer memory kittyForSale = tokenIdToOffer[_tokenId];\n    require(kittyForSale.active, \"This kitty is not for sale\");\n    require(msg.value == kittyForSale.price, \"Transfer amount is incorrect\");\n\n    kittyForSale.active = false;\n    delete tokenIdToOffer[_tokenId];\n\n    _approve(msg.sender, _tokenId);\n    kittyForSale.seller.transfer(msg.value);\n    transferFrom(kittyForSale.seller, msg.sender, _tokenId);\n\n\n    emit MarketTransaction(\"Buy\", msg.sender, _tokenId);\n  }\n\n}\n",
  "sourcePath": "/Users/attissngo/Documents/ThePowerOfMeow/contracts/KittyMarketplace.sol",
  "compiler": {
    "name": "solc",
    "version": "0.8.0+commit.c7dfd78e.Emscripten.clang"
  },
  "schemaVersion": "3.4.3",
  "updatedAt": "2021-12-21T03:22:41.584Z",
  "devdoc": {
    "kind": "dev",
    "methods": {},
    "version": 1
  },
  "userdoc": {
    "kind": "user",
    "methods": {},
    "version": 1
  }
}