{
  "contractName": "KittyStruct",
  "abi": [
    {
      "anonymous": false,
      "inputs": [
        {
          "indexed": true,
          "internalType": "address",
          "name": "_owner",
          "type": "address"
        },
        {
          "indexed": true,
          "internalType": "address",
          "name": "_approved",
          "type": "address"
        },
        {
          "indexed": true,
          "internalType": "uint256",
          "name": "_tokenId",
          "type": "uint256"
        }
      ],
      "name": "Approval",
      "type": "event"
    },
    {
      "anonymous": false,
      "inputs": [
        {
          "indexed": false,
          "internalType": "address",
          "name": "owner",
          "type": "address"
        },
        {
          "indexed": false,
          "internalType": "uint256",
          "name": "kittenId",
          "type": "uint256"
        },
        {
          "indexed": false,
          "internalType": "uint256",
          "name": "matronId",
          "type": "uint256"
        },
        {
          "indexed": false,
          "internalType": "uint256",
          "name": "sireId",
          "type": "uint256"
        },
        {
          "indexed": false,
          "internalType": "uint256",
          "name": "genes",
          "type": "uint256"
        }
      ],
      "name": "Birth",
      "type": "event"
    },
    {
      "anonymous": false,
      "inputs": [
        {
          "indexed": true,
          "internalType": "address",
          "name": "_from",
          "type": "address"
        },
        {
          "indexed": true,
          "internalType": "address",
          "name": "_to",
          "type": "address"
        },
        {
          "indexed": true,
          "internalType": "uint256",
          "name": "_tokenId",
          "type": "uint256"
        }
      ],
      "name": "Transfer",
      "type": "event"
    },
    {
      "inputs": [
        {
          "internalType": "address",
          "name": "",
          "type": "address"
        },
        {
          "internalType": "address",
          "name": "",
          "type": "address"
        }
      ],
      "name": "approvedOperator",
      "outputs": [
        {
          "internalType": "bool",
          "name": "",
          "type": "bool"
        }
      ],
      "stateMutability": "view",
      "type": "function"
    },
    {
      "inputs": [
        {
          "internalType": "uint256",
          "name": "",
          "type": "uint256"
        }
      ],
      "name": "kittyIndexToApproved",
      "outputs": [
        {
          "internalType": "address",
          "name": "",
          "type": "address"
        }
      ],
      "stateMutability": "view",
      "type": "function"
    },
    {
      "inputs": [
        {
          "internalType": "uint256",
          "name": "",
          "type": "uint256"
        }
      ],
      "name": "ownedBy",
      "outputs": [
        {
          "internalType": "address",
          "name": "",
          "type": "address"
        }
      ],
      "stateMutability": "view",
      "type": "function"
    },
    {
      "inputs": [
        {
          "internalType": "address",
          "name": "",
          "type": "address"
        }
      ],
      "name": "ownershipTokenCount",
      "outputs": [
        {
          "internalType": "uint256",
          "name": "",
          "type": "uint256"
        }
      ],
      "stateMutability": "view",
      "type": "function"
    },
    {
      "inputs": [],
      "name": "totalSupply",
      "outputs": [
        {
          "internalType": "uint256",
          "name": "",
          "type": "uint256"
        }
      ],
      "stateMutability": "view",
      "type": "function"
    },
    {
      "inputs": [
        {
          "internalType": "address",
          "name": "_owner",
          "type": "address"
        }
      ],
      "name": "getOwnerTokens",
      "outputs": [
        {
          "internalType": "uint256[]",
          "name": "ownerTokens",
          "type": "uint256[]"
        }
      ],
      "stateMutability": "view",
      "type": "function"
    },
    {
      "inputs": [
        {
          "internalType": "uint256",
          "name": "_id",
          "type": "uint256"
        }
      ],
      "name": "getKitty",
      "outputs": [
        {
          "internalType": "uint256",
          "name": "genes",
          "type": "uint256"
        },
        {
          "internalType": "uint256",
          "name": "birthTime",
          "type": "uint256"
        },
        {
          "internalType": "uint256",
          "name": "matronId",
          "type": "uint256"
        },
        {
          "internalType": "uint256",
          "name": "sireId",
          "type": "uint256"
        },
        {
          "internalType": "uint256",
          "name": "generation",
          "type": "uint256"
        }
      ],
      "stateMutability": "view",
      "type": "function"
    },
    {
      "inputs": [
        {
          "internalType": "address",
          "name": "_owner",
          "type": "address"
        }
      ],
      "name": "balanceOf",
      "outputs": [
        {
          "internalType": "uint256",
          "name": "",
          "type": "uint256"
        }
      ],
      "stateMutability": "view",
      "type": "function"
    }
  ],
  "bytecode": "0x608060405234801561001057600080fd5b50610b06806100206000396000f3fe608060405234801561001057600080fd5b50600436106100885760003560e01c8063a613e0e71161005b578063a613e0e71461013b578063cec21acb1461016b578063d63d4af01461019b578063e98b7f4d146101cb57610088565b806304a153ab1461008d57806318160ddd146100bd578063481af3d3146100db57806370a082311461010b575b600080fd5b6100a760048036038101906100a291906106fb565b6101ff565b6040516100b491906108cf565b60405180910390f35b6100c561022e565b6040516100d2919061092a565b60405180910390f35b6100f560048036038101906100f09190610737565b61023a565b6040516101029190610892565b60405180910390f35b610125600480360381019061012091906106d2565b61026d565b604051610132919061092a565b60405180910390f35b61015560048036038101906101509190610737565b610325565b6040516101629190610892565b60405180910390f35b610185600480360381019061018091906106d2565b610358565b604051610192919061092a565b60405180910390f35b6101b560048036038101906101b091906106d2565b610370565b6040516101c291906108ad565b60405180910390f35b6101e560048036038101906101e09190610737565b610567565b6040516101f6959493929190610945565b60405180910390f35b60046020528160005260406000206020528060005260406000206000915091509054906101000a900460ff1681565b60008080549050905090565b60036020528060005260406000206000915054906101000a900473ffffffffffffffffffffffffffffffffffffffff1681565b60008073ffffffffffffffffffffffffffffffffffffffff168273ffffffffffffffffffffffffffffffffffffffff1614156102de576040517f08c379a00000000000000000000000000000000000000000000000000000000081526004016102d5906108ea565b60405180910390fd5b600160008373ffffffffffffffffffffffffffffffffffffffff1673ffffffffffffffffffffffffffffffffffffffff168152602001908152602001600020549050919050565b60026020528060005260406000206000915054906101000a900473ffffffffffffffffffffffffffffffffffffffff1681565b60016020528060005260406000206000915090505481565b6060600061037d8361026d565b9050600081141561040057600067ffffffffffffffff8111156103c9577f4e487b7100000000000000000000000000000000000000000000000000000000600052604160045260246000fd5b6040519080825280602002602001820160405280156103f75781602001602082028036833780820191505090505b50915050610562565b60008167ffffffffffffffff811115610442577f4e487b7100000000000000000000000000000000000000000000000000000000600052604160045260246000fd5b6040519080825280602002602001820160405280156104705781602001602082028036833780820191505090505b50905060008061047e61022e565b905060005b818111610559578673ffffffffffffffffffffffffffffffffffffffff166002600083815260200190815260200160002060009054906101000a900473ffffffffffffffffffffffffffffffffffffffff1673ffffffffffffffffffffffffffffffffffffffff161415610546578084848151811061052b577f4e487b7100000000000000000000000000000000000000000000000000000000600052603260045260246000fd5b602002602001018181525050828061054290610a2a565b9350505b808061055190610a2a565b915050610483565b83955050505050505b919050565b600080600080600080600087815481106105aa577f4e487b7100000000000000000000000000000000000000000000000000000000600052603260045260246000fd5b9060005260206000209060020201905060008160010160009054906101000a900467ffffffffffffffff1667ffffffffffffffff161161061f576040517f08c379a00000000000000000000000000000000000000000000000000000000081526004016106169061090a565b60405180910390fd5b806000015495508060010160009054906101000a900467ffffffffffffffff1667ffffffffffffffff1694508060010160089054906101000a900463ffffffff1663ffffffff16935080600101600c9054906101000a900463ffffffff1663ffffffff1692508060010160109054906101000a900461ffff1661ffff1691505091939590929450565b6000813590506106b781610aa2565b92915050565b6000813590506106cc81610ab9565b92915050565b6000602082840312156106e457600080fd5b60006106f2848285016106a8565b91505092915050565b6000806040838503121561070e57600080fd5b600061071c858286016106a8565b925050602061072d858286016106a8565b9150509250929050565b60006020828403121561074957600080fd5b6000610757848285016106bd565b91505092915050565b600061076c8383610874565b60208301905092915050565b610781816109e2565b82525050565b6000610792826109a8565b61079c81856109c0565b93506107a783610998565b8060005b838110156107d85781516107bf8882610760565b97506107ca836109b3565b9250506001810190506107ab565b5085935050505092915050565b6107ee816109f4565b82525050565b6000610801601f836109d1565b91507f5a65726f2061646472657373206973206e6f742076616c6964206f776e6572006000830152602082019050919050565b60006108416014836109d1565b91507f546f6b656e20646f6573206e6f742065786973740000000000000000000000006000830152602082019050919050565b61087d81610a20565b82525050565b61088c81610a20565b82525050565b60006020820190506108a76000830184610778565b92915050565b600060208201905081810360008301526108c78184610787565b905092915050565b60006020820190506108e460008301846107e5565b92915050565b60006020820190508181036000830152610903816107f4565b9050919050565b6000602082019050818103600083015261092381610834565b9050919050565b600060208201905061093f6000830184610883565b92915050565b600060a08201905061095a6000830188610883565b6109676020830187610883565b6109746040830186610883565b6109816060830185610883565b61098e6080830184610883565b9695505050505050565b6000819050602082019050919050565b600081519050919050565b6000602082019050919050565b600082825260208201905092915050565b600082825260208201905092915050565b60006109ed82610a00565b9050919050565b60008115159050919050565b600073ffffffffffffffffffffffffffffffffffffffff82169050919050565b6000819050919050565b6000610a3582610a20565b91507fffffffffffffffffffffffffffffffffffffffffffffffffffffffffffffffff821415610a6857610a67610a73565b5b600182019050919050565b7f4e487b7100000000000000000000000000000000000000000000000000000000600052601160045260246000fd5b610aab816109e2565b8114610ab657600080fd5b50565b610ac281610a20565b8114610acd57600080fd5b5056fea2646970667358221220351af3f863983f6e8b5e46e7bc32109cc6c28a5bcc6fdd92182ff66f0917a25b64736f6c63430008000033",
  "immutableReferences": {},
  "source": "pragma solidity 0.8.0;\n\n// the abstraction of the token - the soul of catboi\ncontract KittyStruct {\n\n  //birth event\n  event Birth(\n    address owner,\n    uint256 kittenId,\n    uint256 matronId,\n    uint256 sireId,\n    uint256 genes\n  );\n  event Transfer(address indexed _from,\n    address indexed _to,\n    uint256 indexed _tokenId);\n  event Approval(address indexed _owner,\n    address indexed _approved,\n    uint256 indexed _tokenId);\n\n  //the cat struct and storage\n  struct Kitty {\n    uint256 genes;\n    uint64 birthTime;\n    uint32 matronId;\n    uint32 sireId;\n    uint16 generation;\n  }\n\n  Kitty[] kitties;\n\n  mapping (address => uint256) public ownershipTokenCount;\n  mapping (uint256 => address) public ownedBy;\n  mapping (uint256 => address) public kittyIndexToApproved;\n  mapping (address => mapping (address => bool)) public approvedOperator;\n\n  //creating cats\n  function _createKitty(\n      uint256 _matronId,\n      uint256 _sireId,\n      uint256 _generation,\n      uint256 _genes,\n      address _owner\n    ) internal returns(uint256) {\n    Kitty memory _kitty = Kitty({\n      genes: _genes,\n      birthTime: uint64(block.timestamp),\n      matronId: uint32(_matronId),\n      sireId: uint32(_sireId),\n      generation: uint16(_generation)\n    });\n    kitties.push(_kitty);\n    uint256 newKittenId = kitties.length - 1;\n    require(newKittenId == uint256(uint32(newKittenId)));\n    emit Birth(_owner, newKittenId, _matronId, _sireId, _genes);\n    _transfer(address(0), _owner, newKittenId);\n    return newKittenId;\n  }\n\n  //fetching tokens\n  function totalSupply() public view returns (uint256) {\n    return kitties.length;\n  }\n\n  function getOwnerTokens(address _owner) public view returns (uint256[] memory ownerTokens) {\n    uint256 tokenCount = balanceOf(_owner);\n    if(tokenCount == 0) {\n      return new uint256[](0);\n    } else {\n      uint256[] memory ownersCats = new uint256[](tokenCount);\n      uint256 ownedIndex = 0;\n      uint256 allTokens = totalSupply();\n      uint256 kittyId = 0;\n\n      for(kittyId ; kittyId <= allTokens; kittyId++) {\n        if(ownedBy[kittyId] == _owner) {\n          ownersCats[ownedIndex] = kittyId;\n          ownedIndex++;\n        }\n      }\n      return ownersCats;\n    }\n  }\n\n  function getKitty(uint256 _id) public view returns (\n    uint256 genes,\n    uint256 birthTime,\n    uint256 matronId,\n    uint256 sireId,\n    uint256 generation\n    ) {\n    Kitty storage kitty = kitties[_id];\n    require(kitty.birthTime > 0, \"Token does not exist\");\n    genes = kitty.genes;\n    birthTime = uint256(kitty.birthTime);\n    matronId = uint256(kitty.matronId);\n    sireId = uint256(kitty.sireId);\n    generation = uint256(kitty.generation);\n    return (genes, birthTime, matronId, sireId, generation);\n  }\n\n  function _transfer(address _from, address _to, uint256 _tokenId) internal {\n    require(_to != address(0) && _to != address(this), \"Invalid recipient address\");\n    require(_tokenId < kitties.length, \"Invalid Token ID\");\n    ownershipTokenCount[_to]++;\n    if(_from != address(0)){\n      ownershipTokenCount[_from]--;\n      delete kittyIndexToApproved[_tokenId];\n    }\n    ownedBy[_tokenId] = _to;\n    emit Transfer(_from, _to, _tokenId);\n    emit Approval(ownedBy[_tokenId], address(0), _tokenId);\n  }\n\n  function balanceOf(address _owner) public view returns (uint256) {\n    require(_owner != address(0), \"Zero address is not valid owner\");\n    return ownershipTokenCount[_owner];\n  }\n\n  function _owns(address _claimant, uint256 _tokenId) internal view returns (bool) {\n    return ownedBy[_tokenId] == _claimant;\n  }\n\n  function _approvedAddress(address _claimant, uint256 _tokenId) internal view returns (bool) {\n    return kittyIndexToApproved[_tokenId] == _claimant;\n  }\n\n  function _validOperator(address _claimant, uint256 _tokenId) internal view returns (bool) {\n    return approvedOperator[(ownedBy[_tokenId])][_claimant] == true;\n  }\n\n}\n",
  "sourcePath": "/Users/attissngo/Documents/ThePowerOfMeow/contracts/KittyStruct.sol",
  "compiler": {
    "name": "solc",
    "version": "0.8.0+commit.c7dfd78e.Emscripten.clang"
  },
  "schemaVersion": "3.4.3",
  "updatedAt": "2021-12-21T03:22:41.591Z",
  "devdoc": {
    "kind": "dev",
    "methods": {},
    "version": 1
  },
  "userdoc": {
    "kind": "user",
    "methods": {},
    "version": 1
  }
}