{
  "contractName": "KittyToken",
  "abi": [
    {
      "anonymous": false,
      "inputs": [
        {
          "indexed": true,
          "internalType": "address",
          "name": "_owner",
          "type": "address"
        },
        {
          "indexed": true,
          "internalType": "address",
          "name": "_approved",
          "type": "address"
        },
        {
          "indexed": true,
          "internalType": "uint256",
          "name": "_tokenId",
          "type": "uint256"
        }
      ],
      "name": "Approval",
      "type": "event"
    },
    {
      "anonymous": false,
      "inputs": [
        {
          "indexed": true,
          "internalType": "address",
          "name": "_owner",
          "type": "address"
        },
        {
          "indexed": true,
          "internalType": "address",
          "name": "_operator",
          "type": "address"
        },
        {
          "indexed": false,
          "internalType": "bool",
          "name": "_approved",
          "type": "bool"
        }
      ],
      "name": "ApprovalForAll",
      "type": "event"
    },
    {
      "anonymous": false,
      "inputs": [
        {
          "indexed": false,
          "internalType": "address",
          "name": "owner",
          "type": "address"
        },
        {
          "indexed": false,
          "internalType": "uint256",
          "name": "kittenId",
          "type": "uint256"
        },
        {
          "indexed": false,
          "internalType": "uint256",
          "name": "matronId",
          "type": "uint256"
        },
        {
          "indexed": false,
          "internalType": "uint256",
          "name": "sireId",
          "type": "uint256"
        },
        {
          "indexed": false,
          "internalType": "uint256",
          "name": "genes",
          "type": "uint256"
        }
      ],
      "name": "Birth",
      "type": "event"
    },
    {
      "anonymous": false,
      "inputs": [
        {
          "indexed": true,
          "internalType": "address",
          "name": "_from",
          "type": "address"
        },
        {
          "indexed": true,
          "internalType": "address",
          "name": "_to",
          "type": "address"
        },
        {
          "indexed": true,
          "internalType": "uint256",
          "name": "_tokenId",
          "type": "uint256"
        }
      ],
      "name": "Transfer",
      "type": "event"
    },
    {
      "inputs": [
        {
          "internalType": "address",
          "name": "",
          "type": "address"
        },
        {
          "internalType": "address",
          "name": "",
          "type": "address"
        }
      ],
      "name": "approvedOperator",
      "outputs": [
        {
          "internalType": "bool",
          "name": "",
          "type": "bool"
        }
      ],
      "stateMutability": "view",
      "type": "function"
    },
    {
      "inputs": [
        {
          "internalType": "address",
          "name": "_owner",
          "type": "address"
        }
      ],
      "name": "balanceOf",
      "outputs": [
        {
          "internalType": "uint256",
          "name": "",
          "type": "uint256"
        }
      ],
      "stateMutability": "view",
      "type": "function"
    },
    {
      "inputs": [
        {
          "internalType": "uint256",
          "name": "_id",
          "type": "uint256"
        }
      ],
      "name": "getKitty",
      "outputs": [
        {
          "internalType": "uint256",
          "name": "genes",
          "type": "uint256"
        },
        {
          "internalType": "uint256",
          "name": "birthTime",
          "type": "uint256"
        },
        {
          "internalType": "uint256",
          "name": "matronId",
          "type": "uint256"
        },
        {
          "internalType": "uint256",
          "name": "sireId",
          "type": "uint256"
        },
        {
          "internalType": "uint256",
          "name": "generation",
          "type": "uint256"
        }
      ],
      "stateMutability": "view",
      "type": "function"
    },
    {
      "inputs": [
        {
          "internalType": "address",
          "name": "_owner",
          "type": "address"
        }
      ],
      "name": "getOwnerTokens",
      "outputs": [
        {
          "internalType": "uint256[]",
          "name": "ownerTokens",
          "type": "uint256[]"
        }
      ],
      "stateMutability": "view",
      "type": "function"
    },
    {
      "inputs": [
        {
          "internalType": "uint256",
          "name": "",
          "type": "uint256"
        }
      ],
      "name": "kittyIndexToApproved",
      "outputs": [
        {
          "internalType": "address",
          "name": "",
          "type": "address"
        }
      ],
      "stateMutability": "view",
      "type": "function"
    },
    {
      "inputs": [],
      "name": "name",
      "outputs": [
        {
          "internalType": "string",
          "name": "",
          "type": "string"
        }
      ],
      "stateMutability": "view",
      "type": "function"
    },
    {
      "inputs": [
        {
          "internalType": "uint256",
          "name": "",
          "type": "uint256"
        }
      ],
      "name": "ownedBy",
      "outputs": [
        {
          "internalType": "address",
          "name": "",
          "type": "address"
        }
      ],
      "stateMutability": "view",
      "type": "function"
    },
    {
      "inputs": [
        {
          "internalType": "address",
          "name": "",
          "type": "address"
        }
      ],
      "name": "ownershipTokenCount",
      "outputs": [
        {
          "internalType": "uint256",
          "name": "",
          "type": "uint256"
        }
      ],
      "stateMutability": "view",
      "type": "function"
    },
    {
      "inputs": [],
      "name": "symbol",
      "outputs": [
        {
          "internalType": "string",
          "name": "",
          "type": "string"
        }
      ],
      "stateMutability": "view",
      "type": "function"
    },
    {
      "inputs": [],
      "name": "totalSupply",
      "outputs": [
        {
          "internalType": "uint256",
          "name": "",
          "type": "uint256"
        }
      ],
      "stateMutability": "view",
      "type": "function"
    },
    {
      "inputs": [
        {
          "internalType": "bytes4",
          "name": "_interfaceId",
          "type": "bytes4"
        }
      ],
      "name": "supportsInterface",
      "outputs": [
        {
          "internalType": "bool",
          "name": "",
          "type": "bool"
        }
      ],
      "stateMutability": "pure",
      "type": "function"
    },
    {
      "inputs": [
        {
          "internalType": "address",
          "name": "_to",
          "type": "address"
        },
        {
          "internalType": "uint256",
          "name": "_tokenId",
          "type": "uint256"
        }
      ],
      "name": "transfer",
      "outputs": [],
      "stateMutability": "nonpayable",
      "type": "function"
    },
    {
      "inputs": [
        {
          "internalType": "uint256",
          "name": "_tokenId",
          "type": "uint256"
        }
      ],
      "name": "ownerOf",
      "outputs": [
        {
          "internalType": "address",
          "name": "",
          "type": "address"
        }
      ],
      "stateMutability": "view",
      "type": "function"
    },
    {
      "inputs": [
        {
          "internalType": "address",
          "name": "_from",
          "type": "address"
        },
        {
          "internalType": "address",
          "name": "_to",
          "type": "address"
        },
        {
          "internalType": "uint256",
          "name": "_tokenId",
          "type": "uint256"
        },
        {
          "internalType": "bytes",
          "name": "data",
          "type": "bytes"
        }
      ],
      "name": "safeTransferFrom",
      "outputs": [],
      "stateMutability": "nonpayable",
      "type": "function"
    },
    {
      "inputs": [
        {
          "internalType": "address",
          "name": "_from",
          "type": "address"
        },
        {
          "internalType": "address",
          "name": "_to",
          "type": "address"
        },
        {
          "internalType": "uint256",
          "name": "_tokenId",
          "type": "uint256"
        }
      ],
      "name": "transferFrom",
      "outputs": [],
      "stateMutability": "nonpayable",
      "type": "function"
    },
    {
      "inputs": [
        {
          "internalType": "address",
          "name": "_approved",
          "type": "address"
        },
        {
          "internalType": "uint256",
          "name": "_tokenId",
          "type": "uint256"
        }
      ],
      "name": "approve",
      "outputs": [],
      "stateMutability": "nonpayable",
      "type": "function"
    },
    {
      "inputs": [
        {
          "internalType": "address",
          "name": "_operator",
          "type": "address"
        },
        {
          "internalType": "bool",
          "name": "_approved",
          "type": "bool"
        }
      ],
      "name": "setApprovalForAll",
      "outputs": [],
      "stateMutability": "nonpayable",
      "type": "function"
    },
    {
      "inputs": [
        {
          "internalType": "uint256",
          "name": "_tokenId",
          "type": "uint256"
        }
      ],
      "name": "getApproved",
      "outputs": [
        {
          "internalType": "address",
          "name": "",
          "type": "address"
        }
      ],
      "stateMutability": "view",
      "type": "function"
    },
    {
      "inputs": [
        {
          "internalType": "address",
          "name": "_owner",
          "type": "address"
        },
        {
          "internalType": "address",
          "name": "_operator",
          "type": "address"
        }
      ],
      "name": "isApprovedForAll",
      "outputs": [
        {
          "internalType": "bool",
          "name": "",
          "type": "bool"
        }
      ],
      "stateMutability": "view",
      "type": "function"
    }
  ],
  "bytecode": "0x608060405234801561001057600080fd5b506120f6806100206000396000f3fe608060405234801561001057600080fd5b50600436106101215760003560e01c806370a08231116100ad578063b88d4fde11610071578063b88d4fde14610340578063cec21acb1461035c578063d63d4af01461038c578063e985e9c5146103bc578063e98b7f4d146103ec57610121565b806370a082311461028a57806395d89b41146102ba578063a22cb465146102d8578063a613e0e7146102f4578063a9059cbb1461032457610121565b8063095ea7b3116100f4578063095ea7b3146101d457806318160ddd146101f057806323b872dd1461020e578063481af3d31461022a5780636352211e1461025a57610121565b806301ffc9a71461012657806304a153ab1461015657806306fdde0314610186578063081812fc146101a4575b600080fd5b610140600480360381019061013b9190611900565b610420565b60405161014d9190611d0e565b60405180910390f35b610170600480360381019061016b919061177d565b6104c0565b60405161017d9190611d0e565b60405180910390f35b61018e6104ef565b60405161019b9190611d29565b60405180910390f35b6101be60048036038101906101b99190611952565b610528565b6040516101cb9190611c85565b60405180910390f35b6101ee60048036038101906101e991906118c4565b6105ab565b005b6101f86106e9565b6040516102059190611e2b565b60405180910390f35b610228600480360381019061022391906117b9565b6106f5565b005b610244600480360381019061023f9190611952565b610770565b6040516102519190611c85565b60405180910390f35b610274600480360381019061026f9190611952565b6107a3565b6040516102819190611c85565b60405180910390f35b6102a4600480360381019061029f9190611754565b610882565b6040516102b19190611e2b565b60405180910390f35b6102c261093a565b6040516102cf9190611d29565b60405180910390f35b6102f260048036038101906102ed9190611888565b610973565b005b61030e60048036038101906103099190611952565b610a70565b60405161031b9190611c85565b60405180910390f35b61033e600480360381019061033991906118c4565b610aa3565b005b61035a60048036038101906103559190611808565b610ac5565b005b61037660048036038101906103719190611754565b610b87565b6040516103839190611e2b565b60405180910390f35b6103a660048036038101906103a19190611754565b610b9f565b6040516103b39190611cec565b60405180910390f35b6103d660048036038101906103d1919061177d565b610d96565b6040516103e39190611d0e565b60405180910390f35b61040660048036038101906104019190611952565b610f09565b604051610417959493929190611e46565b60405180910390f35b60006380ac58cd60e01b7bffffffffffffffffffffffffffffffffffffffffffffffffffffffff1916827bffffffffffffffffffffffffffffffffffffffffffffffffffffffff191614806104b957506301ffc9a760e01b7bffffffffffffffffffffffffffffffffffffffffffffffffffffffff1916827bffffffffffffffffffffffffffffffffffffffffffffffffffffffff1916145b9050919050565b60046020528160005260406000206020528060005260406000206000915091509054906101000a900460ff1681565b6040518060400160405280600e81526020017f546865506f7765724f664d656f7700000000000000000000000000000000000081525081565b600080805490508210610570576040517f08c379a000000000000000000000000000000000000000000000000000000000815260040161056790611dcb565b60405180910390fd5b6003600083815260200190815260200160002060009054906101000a900473ffffffffffffffffffffffffffffffffffffffff169050919050565b6105b5338261104a565b806105c657506105c533826110b6565b5b610605576040517f08c379a00000000000000000000000000000000000000000000000000000000081526004016105fc90611e0b565b60405180910390fd5b816003600083815260200190815260200160002060006101000a81548173ffffffffffffffffffffffffffffffffffffffff021916908373ffffffffffffffffffffffffffffffffffffffff160217905550808273ffffffffffffffffffffffffffffffffffffffff166002600084815260200190815260200160002060009054906101000a900473ffffffffffffffffffffffffffffffffffffffff1673ffffffffffffffffffffffffffffffffffffffff167f8c5be1e5ebec7d5bd14f71427d1e84f3dd0314c0f7b2291e5b200ac8c7c3b92560405160405180910390a45050565b60008080549050905090565b6106ff338261104a565b80610710575061070f3382611184565b5b80610721575061072033826110b6565b5b610760576040517f08c379a000000000000000000000000000000000000000000000000000000000815260040161075790611e0b565b60405180910390fd5b61076b8383836111f0565b505050565b60036020528060005260406000206000915054906101000a900473ffffffffffffffffffffffffffffffffffffffff1681565b60008073ffffffffffffffffffffffffffffffffffffffff166002600084815260200190815260200160002060009054906101000a900473ffffffffffffffffffffffffffffffffffffffff1673ffffffffffffffffffffffffffffffffffffffff161415610847576040517f08c379a000000000000000000000000000000000000000000000000000000000815260040161083e90611d6b565b60405180910390fd5b6002600083815260200190815260200160002060009054906101000a900473ffffffffffffffffffffffffffffffffffffffff169050919050565b60008073ffffffffffffffffffffffffffffffffffffffff168273ffffffffffffffffffffffffffffffffffffffff1614156108f3576040517f08c379a00000000000000000000000000000000000000000000000000000000081526004016108ea90611d8b565b60405180910390fd5b600160008373ffffffffffffffffffffffffffffffffffffffff1673ffffffffffffffffffffffffffffffffffffffff168152602001908152602001600020549050919050565b6040518060400160405280600481526020017f4d454f570000000000000000000000000000000000000000000000000000000081525081565b80600460003373ffffffffffffffffffffffffffffffffffffffff1673ffffffffffffffffffffffffffffffffffffffff16815260200190815260200160002060008473ffffffffffffffffffffffffffffffffffffffff1673ffffffffffffffffffffffffffffffffffffffff16815260200190815260200160002060006101000a81548160ff0219169083151502179055508173ffffffffffffffffffffffffffffffffffffffff163373ffffffffffffffffffffffffffffffffffffffff167f17307eab39ab6107e8899845ad3d59bd9653f200f220920489ca2b5937696c3183604051610a649190611d0e565b60405180910390a35050565b60026020528060005260406000206000915054906101000a900473ffffffffffffffffffffffffffffffffffffffff1681565b610aad338261104a565b610ab657600080fd5b610ac13383836111f0565b5050565b610acf338461104a565b80610ae05750610adf3384611184565b5b80610af15750610af033846110b6565b5b610b30576040517f08c379a0000000000000000000000000000000000000000000000000000000008152600401610b2790611e0b565b60405180910390fd5b610b8085858585858080601f016020809104026020016040519081016040528093929190818152602001838380828437600081840152601f19601f82011690508083019250505050505050611535565b5050505050565b60016020528060005260406000206000915090505481565b60606000610bac83610882565b90506000811415610c2f57600067ffffffffffffffff811115610bf8577f4e487b7100000000000000000000000000000000000000000000000000000000600052604160045260246000fd5b604051908082528060200260200182016040528015610c265781602001602082028036833780820191505090505b50915050610d91565b60008167ffffffffffffffff811115610c71577f4e487b7100000000000000000000000000000000000000000000000000000000600052604160045260246000fd5b604051908082528060200260200182016040528015610c9f5781602001602082028036833780820191505090505b509050600080610cad6106e9565b905060005b818111610d88578673ffffffffffffffffffffffffffffffffffffffff166002600083815260200190815260200160002060009054906101000a900473ffffffffffffffffffffffffffffffffffffffff1673ffffffffffffffffffffffffffffffffffffffff161415610d755780848481518110610d5a577f4e487b7100000000000000000000000000000000000000000000000000000000600052603260045260246000fd5b6020026020010181815250508280610d7190611fdb565b9350505b8080610d8090611fdb565b915050610cb2565b83955050505050505b919050565b60008073ffffffffffffffffffffffffffffffffffffffff168273ffffffffffffffffffffffffffffffffffffffff161415610e07576040517f08c379a0000000000000000000000000000000000000000000000000000000008152600401610dfe90611d4b565b60405180910390fd5b600073ffffffffffffffffffffffffffffffffffffffff168373ffffffffffffffffffffffffffffffffffffffff161415610e77576040517f08c379a0000000000000000000000000000000000000000000000000000000008152600401610e6e90611d6b565b60405180910390fd5b600460008473ffffffffffffffffffffffffffffffffffffffff1673ffffffffffffffffffffffffffffffffffffffff16815260200190815260200160002060008373ffffffffffffffffffffffffffffffffffffffff1673ffffffffffffffffffffffffffffffffffffffff16815260200190815260200160002060009054906101000a900460ff16905092915050565b60008060008060008060008781548110610f4c577f4e487b7100000000000000000000000000000000000000000000000000000000600052603260045260246000fd5b9060005260206000209060020201905060008160010160009054906101000a900467ffffffffffffffff1667ffffffffffffffff1611610fc1576040517f08c379a0000000000000000000000000000000000000000000000000000000008152600401610fb890611dab565b60405180910390fd5b806000015495508060010160009054906101000a900467ffffffffffffffff1667ffffffffffffffff1694508060010160089054906101000a900463ffffffff1663ffffffff16935080600101600c9054906101000a900463ffffffff1663ffffffff1692508060010160109054906101000a900461ffff1661ffff1691505091939590929450565b60008273ffffffffffffffffffffffffffffffffffffffff166002600084815260200190815260200160002060009054906101000a900473ffffffffffffffffffffffffffffffffffffffff1673ffffffffffffffffffffffffffffffffffffffff1614905092915050565b600060011515600460006002600086815260200190815260200160002060009054906101000a900473ffffffffffffffffffffffffffffffffffffffff1673ffffffffffffffffffffffffffffffffffffffff1673ffffffffffffffffffffffffffffffffffffffff16815260200190815260200160002060008573ffffffffffffffffffffffffffffffffffffffff1673ffffffffffffffffffffffffffffffffffffffff16815260200190815260200160002060009054906101000a900460ff16151514905092915050565b60008273ffffffffffffffffffffffffffffffffffffffff166003600084815260200190815260200160002060009054906101000a900473ffffffffffffffffffffffffffffffffffffffff1673ffffffffffffffffffffffffffffffffffffffff1614905092915050565b600073ffffffffffffffffffffffffffffffffffffffff168273ffffffffffffffffffffffffffffffffffffffff161415801561125957503073ffffffffffffffffffffffffffffffffffffffff168273ffffffffffffffffffffffffffffffffffffffff1614155b611298576040517f08c379a000000000000000000000000000000000000000000000000000000000815260040161128f90611deb565b60405180910390fd5b60008054905081106112df576040517f08c379a00000000000000000000000000000000000000000000000000000000081526004016112d690611dcb565b60405180910390fd5b600160008373ffffffffffffffffffffffffffffffffffffffff1673ffffffffffffffffffffffffffffffffffffffff168152602001908152602001600020600081548092919061132f90611fdb565b9190505550600073ffffffffffffffffffffffffffffffffffffffff168373ffffffffffffffffffffffffffffffffffffffff16146113f457600160008473ffffffffffffffffffffffffffffffffffffffff1673ffffffffffffffffffffffffffffffffffffffff16815260200190815260200160002060008154809291906113b890611fb1565b91905055506003600082815260200190815260200160002060006101000a81549073ffffffffffffffffffffffffffffffffffffffff02191690555b816002600083815260200190815260200160002060006101000a81548173ffffffffffffffffffffffffffffffffffffffff021916908373ffffffffffffffffffffffffffffffffffffffff160217905550808273ffffffffffffffffffffffffffffffffffffffff168473ffffffffffffffffffffffffffffffffffffffff167fddf252ad1be2c89b69c2b068fc378daa952ba7f163c4a11628f55a4df523b3ef60405160405180910390a480600073ffffffffffffffffffffffffffffffffffffffff166002600084815260200190815260200160002060009054906101000a900473ffffffffffffffffffffffffffffffffffffffff1673ffffffffffffffffffffffffffffffffffffffff167f8c5be1e5ebec7d5bd14f71427d1e84f3dd0314c0f7b2291e5b200ac8c7c3b92560405160405180910390a4505050565b61153f848361104a565b61154857600080fd5b6115538484846111f0565b61155f8484848461156e565b61156857600080fd5b50505050565b600061157984611688565b6115865760019050611680565b60008473ffffffffffffffffffffffffffffffffffffffff1663150b7a02338887876040518563ffffffff1660e01b81526004016115c79493929190611ca0565b602060405180830381600087803b1580156115e157600080fd5b505af11580156115f5573d6000803e3d6000fd5b505050506040513d601f19601f820116820180604052508101906116199190611929565b90507f150b7a023d4804d13e8c85fb27262cb750cf6ba9f9dd3bb30d90f482ceeb4b1f7bffffffffffffffffffffffffffffffffffffffffffffffffffffffff1916817bffffffffffffffffffffffffffffffffffffffffffffffffffffffff1916149150505b949350505050565b600080823b905060008163ffffffff1611915050919050565b6000813590506116b081612064565b92915050565b6000813590506116c58161207b565b92915050565b6000813590506116da81612092565b92915050565b6000815190506116ef81612092565b92915050565b60008083601f84011261170757600080fd5b8235905067ffffffffffffffff81111561172057600080fd5b60208301915083600182028301111561173857600080fd5b9250929050565b60008135905061174e816120a9565b92915050565b60006020828403121561176657600080fd5b6000611774848285016116a1565b91505092915050565b6000806040838503121561179057600080fd5b600061179e858286016116a1565b92505060206117af858286016116a1565b9150509250929050565b6000806000606084860312156117ce57600080fd5b60006117dc868287016116a1565b93505060206117ed868287016116a1565b92505060406117fe8682870161173f565b9150509250925092565b60008060008060006080868803121561182057600080fd5b600061182e888289016116a1565b955050602061183f888289016116a1565b94505060406118508882890161173f565b935050606086013567ffffffffffffffff81111561186d57600080fd5b611879888289016116f5565b92509250509295509295909350565b6000806040838503121561189b57600080fd5b60006118a9858286016116a1565b92505060206118ba858286016116b6565b9150509250929050565b600080604083850312156118d757600080fd5b60006118e5858286016116a1565b92505060206118f68582860161173f565b9150509250929050565b60006020828403121561191257600080fd5b6000611920848285016116cb565b91505092915050565b60006020828403121561193b57600080fd5b6000611949848285016116e0565b91505092915050565b60006020828403121561196457600080fd5b60006119728482850161173f565b91505092915050565b60006119878383611c67565b60208301905092915050565b61199c81611f0a565b82525050565b60006119ad82611ea9565b6119b78185611ed7565b93506119c283611e99565b8060005b838110156119f35781516119da888261197b565b97506119e583611eca565b9250506001810190506119c6565b5085935050505092915050565b611a0981611f1c565b82525050565b6000611a1a82611eb4565b611a248185611ee8565b9350611a34818560208601611f7e565b611a3d81612053565b840191505092915050565b6000611a5382611ebf565b611a5d8185611ef9565b9350611a6d818560208601611f7e565b611a7681612053565b840191505092915050565b6000611a8e602d83611ef9565b91507f5a65726f20616464726573732063616e6e6f7420626520616e20617574686f7260008301527f697a6564206f70657261746f72000000000000000000000000000000000000006020830152604082019050919050565b6000611af4601e83611ef9565b91507f5a65726f20616464726573732063616e6e6f74206f776e20746f6b656e7300006000830152602082019050919050565b6000611b34601f83611ef9565b91507f5a65726f2061646472657373206973206e6f742076616c6964206f776e6572006000830152602082019050919050565b6000611b74601483611ef9565b91507f546f6b656e20646f6573206e6f742065786973740000000000000000000000006000830152602082019050919050565b6000611bb4601083611ef9565b91507f496e76616c696420546f6b656e204944000000000000000000000000000000006000830152602082019050919050565b6000611bf4601983611ef9565b91507f496e76616c696420726563697069656e742061646472657373000000000000006000830152602082019050919050565b6000611c34601083611ef9565b91507f496e76616c6964206f70657261746f72000000000000000000000000000000006000830152602082019050919050565b611c7081611f74565b82525050565b611c7f81611f74565b82525050565b6000602082019050611c9a6000830184611993565b92915050565b6000608082019050611cb56000830187611993565b611cc26020830186611993565b611ccf6040830185611c76565b8181036060830152611ce18184611a0f565b905095945050505050565b60006020820190508181036000830152611d0681846119a2565b905092915050565b6000602082019050611d236000830184611a00565b92915050565b60006020820190508181036000830152611d438184611a48565b905092915050565b60006020820190508181036000830152611d6481611a81565b9050919050565b60006020820190508181036000830152611d8481611ae7565b9050919050565b60006020820190508181036000830152611da481611b27565b9050919050565b60006020820190508181036000830152611dc481611b67565b9050919050565b60006020820190508181036000830152611de481611ba7565b9050919050565b60006020820190508181036000830152611e0481611be7565b9050919050565b60006020820190508181036000830152611e2481611c27565b9050919050565b6000602082019050611e406000830184611c76565b92915050565b600060a082019050611e5b6000830188611c76565b611e686020830187611c76565b611e756040830186611c76565b611e826060830185611c76565b611e8f6080830184611c76565b9695505050505050565b6000819050602082019050919050565b600081519050919050565b600081519050919050565b600081519050919050565b6000602082019050919050565b600082825260208201905092915050565b600082825260208201905092915050565b600082825260208201905092915050565b6000611f1582611f54565b9050919050565b60008115159050919050565b60007fffffffff0000000000000000000000000000000000000000000000000000000082169050919050565b600073ffffffffffffffffffffffffffffffffffffffff82169050919050565b6000819050919050565b60005b83811015611f9c578082015181840152602081019050611f81565b83811115611fab576000848401525b50505050565b6000611fbc82611f74565b91506000821415611fd057611fcf612024565b5b600182039050919050565b6000611fe682611f74565b91507fffffffffffffffffffffffffffffffffffffffffffffffffffffffffffffffff82141561201957612018612024565b5b600182019050919050565b7f4e487b7100000000000000000000000000000000000000000000000000000000600052601160045260246000fd5b6000601f19601f8301169050919050565b61206d81611f0a565b811461207857600080fd5b50565b61208481611f1c565b811461208f57600080fd5b50565b61209b81611f28565b81146120a657600080fd5b50565b6120b281611f74565b81146120bd57600080fd5b5056fea264697066735822122021227fbeaaec27c4259b76024b601014158ea9e64a8bce4c8960f1197ab7144c64736f6c63430008000033",
  "immutableReferences": {},
  "source": "pragma solidity 0.8.0;\n\nimport \"./KittyStruct.sol\";\nimport \"./IERC721Receiver.sol\";\n\n// the mechanics of the token\ncontract KittyToken is KittyStruct {\n\n  event ApprovalForAll(address indexed _owner, address indexed _operator, bool _approved);\n\n  string public constant name = \"ThePowerOfMeow\";\n  string public constant symbol = \"MEOW\";\n  bytes4 private constant _INTERFACE_ID_ERC721 = 0x80ac58cd;\n  bytes4 private constant _INTERFACE_ID_ERC165 = 0x01ffc9a7;\n  bytes4 internal constant MAGIC_ERC721_RECEIVED = bytes4(keccak256(\"onERC721Received(address,address,uint256,bytes)\"));\n\n  //compatibility ------------------------------\n  function supportsInterface(bytes4 _interfaceId) external pure returns(bool){\n    return(_interfaceId == _INTERFACE_ID_ERC721 || _interfaceId == _INTERFACE_ID_ERC165);\n    }\n\n  function _checkIERC721Support(address _from, address _to, uint256 _tokenId, bytes memory _data) internal returns(bool) {\n    if(!_isContract(_to)){\n      return true;\n    }\n    bytes4 returnData = IERC721Receiver(_to).onERC721Received(msg.sender, _from, _tokenId, _data);\n    return returnData == MAGIC_ERC721_RECEIVED;\n  }\n\n  function _isContract(address _to) internal view returns(bool) {\n    uint32 size;\n    assembly{\n      size := extcodesize(_to)\n    }\n    return size > 0;\n  }\n\n  //need this for tests. Simple function to transfer only from token owner\n  function transfer(address _to, uint256 _tokenId) public {\n    require(_owns(msg.sender, _tokenId));\n    _transfer(msg.sender, _to, _tokenId);\n  }\n\n  //SafeTransfer -- where is this used?\n  function _safeTransfer(address _from, address _to, uint256 _tokenId, bytes memory _data) internal {\n    require(_owns(_from, _tokenId));\n    _transfer(_from, _to, _tokenId);\n    require(_checkIERC721Support(_from, _to, _tokenId, _data));\n  }\n\n  //IERC721 required functions\n\n  function ownerOf(uint256 _tokenId) public view returns (address) {\n    require(ownedBy[_tokenId] != address(0), \"Zero address cannot own tokens\");\n    return ownedBy[_tokenId];\n  }\n\n  function safeTransferFrom(address _from, address _to, uint256 _tokenId, bytes calldata data) public {\n    require(_owns(msg.sender, _tokenId) ||\n      _approvedAddress(msg.sender, _tokenId) ||\n      _validOperator(msg.sender, _tokenId), \"Invalid operator\");\n    _safeTransfer(_from, _to, _tokenId, data);\n  }\n\n  function safeTransferFrom(address _from, address _to, uint256 _tokenId) internal {\n    require(_owns(msg.sender, _tokenId) ||\n      _approvedAddress(msg.sender, _tokenId) ||\n      _validOperator(msg.sender, _tokenId), \"Invalid operator\");\n    _safeTransfer(_from, _to, _tokenId, \"\");\n  }\n\n  function transferFrom(address _from, address _to, uint256 _tokenId) public {\n    require(_owns(msg.sender, _tokenId) ||\n      _approvedAddress(msg.sender, _tokenId) ||\n      _validOperator(msg.sender, _tokenId), \"Invalid operator\");\n    _transfer(_from, _to, _tokenId);\n  }\n\n  function approve(address _approved, uint256 _tokenId) public {\n    require(_owns(msg.sender, _tokenId) || _validOperator(msg.sender, _tokenId), \"Invalid operator\");\n    kittyIndexToApproved[_tokenId] = _approved;\n    emit Approval(ownedBy[_tokenId], _approved, _tokenId);\n  }\n\n  function _approve(address _approved, uint256 _tokenId) internal {\n    kittyIndexToApproved[_tokenId] = _approved;\n    emit Approval(ownedBy[_tokenId], _approved, _tokenId);\n  }\n\n  function setApprovalForAll(address _operator, bool _approved) public {\n    approvedOperator[msg.sender][_operator] = _approved;\n    emit ApprovalForAll(msg.sender, _operator, _approved);\n  }\n\n  function getApproved(uint256 _tokenId) public view returns (address) {\n    require(_tokenId < kitties.length, \"Invalid Token ID\");\n    return kittyIndexToApproved[_tokenId];\n  }\n\n  function isApprovedForAll(address _owner, address _operator) public view returns (bool) {\n    require(_operator != address(0), \"Zero address cannot be an authorized operator\");\n    require(_owner != address(0), \"Zero address cannot own tokens\");\n    return approvedOperator[_owner][_operator];\n  }\n\n}\n",
  "sourcePath": "/Users/attissngo/Documents/ThePowerOfMeow/contracts/KittyToken.sol",
  "compiler": {
    "name": "solc",
    "version": "0.8.0+commit.c7dfd78e.Emscripten.clang"
  },
  "schemaVersion": "3.4.3",
  "updatedAt": "2021-12-21T03:22:41.596Z",
  "devdoc": {
    "kind": "dev",
    "methods": {},
    "version": 1
  },
  "userdoc": {
    "kind": "user",
    "methods": {},
    "version": 1
  }
}