{
  "contractName": "Kittycontract",
  "abi": [
    {
      "inputs": [],
      "stateMutability": "nonpayable",
      "type": "constructor"
    },
    {
      "anonymous": false,
      "inputs": [
        {
          "indexed": true,
          "internalType": "address",
          "name": "_owner",
          "type": "address"
        },
        {
          "indexed": true,
          "internalType": "address",
          "name": "_approved",
          "type": "address"
        },
        {
          "indexed": true,
          "internalType": "uint256",
          "name": "_tokenId",
          "type": "uint256"
        }
      ],
      "name": "Approval",
      "type": "event"
    },
    {
      "anonymous": false,
      "inputs": [
        {
          "indexed": true,
          "internalType": "address",
          "name": "_owner",
          "type": "address"
        },
        {
          "indexed": true,
          "internalType": "address",
          "name": "_operator",
          "type": "address"
        },
        {
          "indexed": false,
          "internalType": "bool",
          "name": "_approved",
          "type": "bool"
        }
      ],
      "name": "ApprovalForAll",
      "type": "event"
    },
    {
      "anonymous": false,
      "inputs": [
        {
          "indexed": false,
          "internalType": "address",
          "name": "owner",
          "type": "address"
        },
        {
          "indexed": false,
          "internalType": "uint256",
          "name": "kittenId",
          "type": "uint256"
        },
        {
          "indexed": false,
          "internalType": "uint256",
          "name": "matronId",
          "type": "uint256"
        },
        {
          "indexed": false,
          "internalType": "uint256",
          "name": "sireId",
          "type": "uint256"
        },
        {
          "indexed": false,
          "internalType": "uint256",
          "name": "genes",
          "type": "uint256"
        }
      ],
      "name": "Birth",
      "type": "event"
    },
    {
      "anonymous": false,
      "inputs": [
        {
          "indexed": false,
          "internalType": "string",
          "name": "TxType",
          "type": "string"
        },
        {
          "indexed": false,
          "internalType": "address",
          "name": "owner",
          "type": "address"
        },
        {
          "indexed": false,
          "internalType": "uint256",
          "name": "tokenId",
          "type": "uint256"
        }
      ],
      "name": "MarketTransaction",
      "type": "event"
    },
    {
      "anonymous": false,
      "inputs": [
        {
          "indexed": true,
          "internalType": "address",
          "name": "_from",
          "type": "address"
        },
        {
          "indexed": true,
          "internalType": "address",
          "name": "_to",
          "type": "address"
        },
        {
          "indexed": true,
          "internalType": "uint256",
          "name": "_tokenId",
          "type": "uint256"
        }
      ],
      "name": "Transfer",
      "type": "event"
    },
    {
      "inputs": [],
      "name": "CREATION_LIMIT_GEN0",
      "outputs": [
        {
          "internalType": "uint256",
          "name": "",
          "type": "uint256"
        }
      ],
      "stateMutability": "view",
      "type": "function",
      "constant": true
    },
    {
      "inputs": [
        {
          "internalType": "address",
          "name": "_approved",
          "type": "address"
        },
        {
          "internalType": "uint256",
          "name": "_tokenId",
          "type": "uint256"
        }
      ],
      "name": "approve",
      "outputs": [],
      "stateMutability": "nonpayable",
      "type": "function"
    },
    {
      "inputs": [
        {
          "internalType": "address",
          "name": "",
          "type": "address"
        },
        {
          "internalType": "address",
          "name": "",
          "type": "address"
        }
      ],
      "name": "approvedOperator",
      "outputs": [
        {
          "internalType": "bool",
          "name": "",
          "type": "bool"
        }
      ],
      "stateMutability": "view",
      "type": "function",
      "constant": true
    },
    {
      "inputs": [
        {
          "internalType": "address",
          "name": "_owner",
          "type": "address"
        }
      ],
      "name": "balanceOf",
      "outputs": [
        {
          "internalType": "uint256",
          "name": "",
          "type": "uint256"
        }
      ],
      "stateMutability": "view",
      "type": "function",
      "constant": true
    },
    {
      "inputs": [
        {
          "internalType": "uint256",
          "name": "_tokenId",
          "type": "uint256"
        }
      ],
      "name": "buyKitty",
      "outputs": [],
      "stateMutability": "payable",
      "type": "function",
      "payable": true
    },
    {
      "inputs": [],
      "name": "gen0Counter",
      "outputs": [
        {
          "internalType": "uint256",
          "name": "",
          "type": "uint256"
        }
      ],
      "stateMutability": "view",
      "type": "function",
      "constant": true
    },
    {
      "inputs": [],
      "name": "getAllTokenOnSale",
      "outputs": [
        {
          "internalType": "uint256[]",
          "name": "",
          "type": "uint256[]"
        }
      ],
      "stateMutability": "view",
      "type": "function",
      "constant": true
    },
    {
      "inputs": [
        {
          "internalType": "uint256",
          "name": "_tokenId",
          "type": "uint256"
        }
      ],
      "name": "getApproved",
      "outputs": [
        {
          "internalType": "address",
          "name": "",
          "type": "address"
        }
      ],
      "stateMutability": "view",
      "type": "function",
      "constant": true
    },
    {
      "inputs": [
        {
          "internalType": "uint256",
          "name": "_id",
          "type": "uint256"
        }
      ],
      "name": "getKitty",
      "outputs": [
        {
          "internalType": "uint256",
          "name": "genes",
          "type": "uint256"
        },
        {
          "internalType": "uint256",
          "name": "birthTime",
          "type": "uint256"
        },
        {
          "internalType": "uint256",
          "name": "matronId",
          "type": "uint256"
        },
        {
          "internalType": "uint256",
          "name": "sireId",
          "type": "uint256"
        },
        {
          "internalType": "uint256",
          "name": "generation",
          "type": "uint256"
        }
      ],
      "stateMutability": "view",
      "type": "function",
      "constant": true
    },
    {
      "inputs": [
        {
          "internalType": "uint256",
          "name": "_tokenId",
          "type": "uint256"
        }
      ],
      "name": "getOffer",
      "outputs": [
        {
          "internalType": "address",
          "name": "seller",
          "type": "address"
        },
        {
          "internalType": "uint256",
          "name": "price",
          "type": "uint256"
        },
        {
          "internalType": "uint256",
          "name": "tokenId",
          "type": "uint256"
        },
        {
          "internalType": "bool",
          "name": "active",
          "type": "bool"
        }
      ],
      "stateMutability": "view",
      "type": "function",
      "constant": true
    },
    {
      "inputs": [
        {
          "internalType": "address",
          "name": "_owner",
          "type": "address"
        }
      ],
      "name": "getOwnerTokens",
      "outputs": [
        {
          "internalType": "uint256[]",
          "name": "ownerTokens",
          "type": "uint256[]"
        }
      ],
      "stateMutability": "view",
      "type": "function",
      "constant": true
    },
    {
      "inputs": [
        {
          "internalType": "address",
          "name": "_owner",
          "type": "address"
        },
        {
          "internalType": "address",
          "name": "_operator",
          "type": "address"
        }
      ],
      "name": "isApprovedForAll",
      "outputs": [
        {
          "internalType": "bool",
          "name": "",
          "type": "bool"
        }
      ],
      "stateMutability": "view",
      "type": "function",
      "constant": true
    },
    {
      "inputs": [
        {
          "internalType": "uint256",
          "name": "",
          "type": "uint256"
        }
      ],
      "name": "kittyIndexToApproved",
      "outputs": [
        {
          "internalType": "address",
          "name": "",
          "type": "address"
        }
      ],
      "stateMutability": "view",
      "type": "function",
      "constant": true
    },
    {
      "inputs": [
        {
          "internalType": "uint256",
          "name": "",
          "type": "uint256"
        }
      ],
      "name": "lastBreedTime",
      "outputs": [
        {
          "internalType": "uint256",
          "name": "",
          "type": "uint256"
        }
      ],
      "stateMutability": "view",
      "type": "function",
      "constant": true
    },
    {
      "inputs": [],
      "name": "name",
      "outputs": [
        {
          "internalType": "string",
          "name": "",
          "type": "string"
        }
      ],
      "stateMutability": "view",
      "type": "function",
      "constant": true
    },
    {
      "inputs": [
        {
          "internalType": "uint256",
          "name": "",
          "type": "uint256"
        }
      ],
      "name": "ownedBy",
      "outputs": [
        {
          "internalType": "address",
          "name": "",
          "type": "address"
        }
      ],
      "stateMutability": "view",
      "type": "function",
      "constant": true
    },
    {
      "inputs": [
        {
          "internalType": "uint256",
          "name": "_tokenId",
          "type": "uint256"
        }
      ],
      "name": "ownerOf",
      "outputs": [
        {
          "internalType": "address",
          "name": "",
          "type": "address"
        }
      ],
      "stateMutability": "view",
      "type": "function",
      "constant": true
    },
    {
      "inputs": [
        {
          "internalType": "address",
          "name": "",
          "type": "address"
        }
      ],
      "name": "ownershipTokenCount",
      "outputs": [
        {
          "internalType": "uint256",
          "name": "",
          "type": "uint256"
        }
      ],
      "stateMutability": "view",
      "type": "function",
      "constant": true
    },
    {
      "inputs": [
        {
          "internalType": "uint256",
          "name": "_tokenId",
          "type": "uint256"
        }
      ],
      "name": "removeOffer",
      "outputs": [],
      "stateMutability": "nonpayable",
      "type": "function"
    },
    {
      "inputs": [
        {
          "internalType": "address",
          "name": "_from",
          "type": "address"
        },
        {
          "internalType": "address",
          "name": "_to",
          "type": "address"
        },
        {
          "internalType": "uint256",
          "name": "_tokenId",
          "type": "uint256"
        },
        {
          "internalType": "bytes",
          "name": "data",
          "type": "bytes"
        }
      ],
      "name": "safeTransferFrom",
      "outputs": [],
      "stateMutability": "nonpayable",
      "type": "function"
    },
    {
      "inputs": [
        {
          "internalType": "address",
          "name": "_operator",
          "type": "address"
        },
        {
          "internalType": "bool",
          "name": "_approved",
          "type": "bool"
        }
      ],
      "name": "setApprovalForAll",
      "outputs": [],
      "stateMutability": "nonpayable",
      "type": "function"
    },
    {
      "inputs": [
        {
          "internalType": "uint256",
          "name": "_price",
          "type": "uint256"
        },
        {
          "internalType": "uint256",
          "name": "_tokenId",
          "type": "uint256"
        }
      ],
      "name": "setOffer",
      "outputs": [],
      "stateMutability": "nonpayable",
      "type": "function"
    },
    {
      "inputs": [
        {
          "internalType": "bytes4",
          "name": "_interfaceId",
          "type": "bytes4"
        }
      ],
      "name": "supportsInterface",
      "outputs": [
        {
          "internalType": "bool",
          "name": "",
          "type": "bool"
        }
      ],
      "stateMutability": "pure",
      "type": "function",
      "constant": true
    },
    {
      "inputs": [],
      "name": "symbol",
      "outputs": [
        {
          "internalType": "string",
          "name": "",
          "type": "string"
        }
      ],
      "stateMutability": "view",
      "type": "function",
      "constant": true
    },
    {
      "inputs": [
        {
          "internalType": "uint256",
          "name": "",
          "type": "uint256"
        }
      ],
      "name": "tokenIdToOffer",
      "outputs": [
        {
          "internalType": "address payable",
          "name": "seller",
          "type": "address"
        },
        {
          "internalType": "uint256",
          "name": "price",
          "type": "uint256"
        },
        {
          "internalType": "uint256",
          "name": "tokenId",
          "type": "uint256"
        },
        {
          "internalType": "bool",
          "name": "active",
          "type": "bool"
        }
      ],
      "stateMutability": "view",
      "type": "function",
      "constant": true
    },
    {
      "inputs": [],
      "name": "totalSupply",
      "outputs": [
        {
          "internalType": "uint256",
          "name": "",
          "type": "uint256"
        }
      ],
      "stateMutability": "view",
      "type": "function",
      "constant": true
    },
    {
      "inputs": [
        {
          "internalType": "address",
          "name": "_to",
          "type": "address"
        },
        {
          "internalType": "uint256",
          "name": "_tokenId",
          "type": "uint256"
        }
      ],
      "name": "transfer",
      "outputs": [],
      "stateMutability": "nonpayable",
      "type": "function"
    },
    {
      "inputs": [
        {
          "internalType": "address",
          "name": "_from",
          "type": "address"
        },
        {
          "internalType": "address",
          "name": "_to",
          "type": "address"
        },
        {
          "internalType": "uint256",
          "name": "_tokenId",
          "type": "uint256"
        }
      ],
      "name": "transferFrom",
      "outputs": [],
      "stateMutability": "nonpayable",
      "type": "function"
    },
    {
      "inputs": [
        {
          "internalType": "uint256",
          "name": "_genes",
          "type": "uint256"
        }
      ],
      "name": "createKittyGen0",
      "outputs": [
        {
          "internalType": "uint256",
          "name": "id",
          "type": "uint256"
        }
      ],
      "stateMutability": "nonpayable",
      "type": "function"
    },
    {
      "inputs": [
        {
          "internalType": "uint256",
          "name": "matronId",
          "type": "uint256"
        },
        {
          "internalType": "uint256",
          "name": "sireId",
          "type": "uint256"
        }
      ],
      "name": "breed",
      "outputs": [],
      "stateMutability": "nonpayable",
      "type": "function"
    },
    {
      "inputs": [
        {
          "internalType": "uint256",
          "name": "generation",
          "type": "uint256"
        },
        {
          "internalType": "uint256",
          "name": "kittyId",
          "type": "uint256"
        }
      ],
      "name": "checkFertility",
      "outputs": [
        {
          "internalType": "bool",
          "name": "",
          "type": "bool"
        }
      ],
      "stateMutability": "view",
      "type": "function",
      "constant": true
    }
  ],
  "bytecode": "0x608060405260006009553480156200001657600080fd5b50336000806101000a81548173ffffffffffffffffffffffffffffffffffffffff021916908373ffffffffffffffffffffffffffffffffffffffff1602179055506200006e655bde3f3205556200007560201b60201c565b50620008d4565b6000601e60095410620000bf576040517f08c379a0000000000000000000000000000000000000000000000000000000008152600401620000b69062000738565b60405180910390fd5b60096000815480929190620000d49062000857565b9190505550620000f060008060008533620000f760201b60201c565b9050919050565b6000806040518060a001604052808581526020014267ffffffffffffffff1681526020018863ffffffff1681526020018763ffffffff1681526020018661ffff16815250905060018190806001815401808255809150506001900390600052602060002090600202016000909190919091506000820151816000015560208201518160010160006101000a81548167ffffffffffffffff021916908367ffffffffffffffff16021790555060408201518160010160086101000a81548163ffffffff021916908363ffffffff160217905550606082015181600101600c6101000a81548163ffffffff021916908363ffffffff16021790555060808201518160010160106101000a81548161ffff021916908361ffff16021790555050506000600180805490506200022a9190620007af565b90508063ffffffff1681146200023f57600080fd5b7f0a5311bd2a6608f08a180df2ee7c5946819a649b204b554bb8e39825b2c50ad584828a8a8960405162000278959493929190620006db565b60405180910390a16200029460008583620002a260201b60201c565b809250505095945050505050565b600073ffffffffffffffffffffffffffffffffffffffff168273ffffffffffffffffffffffffffffffffffffffff16141580156200030c57503073ffffffffffffffffffffffffffffffffffffffff168273ffffffffffffffffffffffffffffffffffffffff1614155b6200034e576040517f08c379a000000000000000000000000000000000000000000000000000000000815260040162000345906200077c565b60405180910390fd5b600180549050811062000398576040517f08c379a00000000000000000000000000000000000000000000000000000000081526004016200038f906200075a565b60405180910390fd5b600260008373ffffffffffffffffffffffffffffffffffffffff1673ffffffffffffffffffffffffffffffffffffffff1681526020019081526020016000206000815480929190620003ea9062000857565b9190505550600073ffffffffffffffffffffffffffffffffffffffff168373ffffffffffffffffffffffffffffffffffffffff1614620004b257600260008473ffffffffffffffffffffffffffffffffffffffff1673ffffffffffffffffffffffffffffffffffffffff1681526020019081526020016000206000815480929190620004769062000828565b91905055506004600082815260200190815260200160002060006101000a81549073ffffffffffffffffffffffffffffffffffffffff02191690555b816003600083815260200190815260200160002060006101000a81548173ffffffffffffffffffffffffffffffffffffffff021916908373ffffffffffffffffffffffffffffffffffffffff160217905550808273ffffffffffffffffffffffffffffffffffffffff168473ffffffffffffffffffffffffffffffffffffffff167fddf252ad1be2c89b69c2b068fc378daa952ba7f163c4a11628f55a4df523b3ef60405160405180910390a480600073ffffffffffffffffffffffffffffffffffffffff166003600084815260200190815260200160002060009054906101000a900473ffffffffffffffffffffffffffffffffffffffff1673ffffffffffffffffffffffffffffffffffffffff167f8c5be1e5ebec7d5bd14f71427d1e84f3dd0314c0f7b2291e5b200ac8c7c3b92560405160405180910390a4505050565b620005fe81620007ea565b82525050565b600062000613601a836200079e565b91507f4d6178696d756d2047656e30206c696d697420726561636865640000000000006000830152602082019050919050565b6000620006556010836200079e565b91507f496e76616c696420546f6b656e204944000000000000000000000000000000006000830152602082019050919050565b6000620006976019836200079e565b91507f496e76616c696420726563697069656e742061646472657373000000000000006000830152602082019050919050565b620006d5816200081e565b82525050565b600060a082019050620006f26000830188620005f3565b620007016020830187620006ca565b620007106040830186620006ca565b6200071f6060830185620006ca565b6200072e6080830184620006ca565b9695505050505050565b60006020820190508181036000830152620007538162000604565b9050919050565b60006020820190508181036000830152620007758162000646565b9050919050565b60006020820190508181036000830152620007978162000688565b9050919050565b600082825260208201905092915050565b6000620007bc826200081e565b9150620007c9836200081e565b925082821015620007df57620007de620008a5565b5b828203905092915050565b6000620007f782620007fe565b9050919050565b600073ffffffffffffffffffffffffffffffffffffffff82169050919050565b6000819050919050565b600062000835826200081e565b915060008214156200084c576200084b620008a5565b5b600182039050919050565b600062000864826200081e565b91507fffffffffffffffffffffffffffffffffffffffffffffffffffffffffffffffff8214156200089a5762000899620008a5565b5b600182019050919050565b7f4e487b7100000000000000000000000000000000000000000000000000000000600052601160045260246000fd5b61433680620008e46000396000f3fe6080604052600436106101d85760003560e01c806395d89b4111610102578063d531fe2b11610095578063e985e9c511610064578063e985e9c514610737578063e98b7f4d14610774578063ef5e94aa146107b5578063fef84ca7146107e0576101d8565b8063d531fe2b14610654578063d5a776ca14610694578063d63d4af0146106d1578063d9ecad7b1461070e576101d8565b8063ae5310f6116100d1578063ae5310f6146105a7578063b4834330146105c3578063b88d4fde146105ee578063cec21acb14610617576101d8565b806395d89b41146104ed578063a22cb46514610518578063a613e0e714610541578063a9059cbb1461057e576101d8565b80634579268a1161017a5780636a2fd411116101495780636a2fd4111461042157806370a082311461045e578063941b055b1461049b57806395a0f9c7146104c4576101d8565b80634579268a1461033c578063481af3d31461037c57806349b3709f146103b95780636352211e146103e4576101d8565b8063081812fc116101b6578063081812fc14610282578063095ea7b3146102bf57806318160ddd146102e857806323b872dd14610313576101d8565b806301ffc9a7146101dd57806304a153ab1461021a57806306fdde0314610257575b600080fd5b3480156101e957600080fd5b5061020460048036038101906101ff9190613183565b61081d565b6040516102119190613b83565b60405180910390f35b34801561022657600080fd5b50610241600480360381019061023c9190613000565b6108bd565b60405161024e9190613b83565b60405180910390f35b34801561026357600080fd5b5061026c6108ec565b6040516102799190613b9e565b60405180910390f35b34801561028e57600080fd5b506102a960048036038101906102a491906131d5565b610925565b6040516102b69190613a1d565b60405180910390f35b3480156102cb57600080fd5b506102e660048036038101906102e19190613147565b6109a9565b005b3480156102f457600080fd5b506102fd610ae7565b60405161030a9190613e94565b60405180910390f35b34801561031f57600080fd5b5061033a6004803603810190610335919061303c565b610af4565b005b34801561034857600080fd5b50610363600480360381019061035e91906131d5565b610b6f565b6040516103739493929190613ac9565b60405180910390f35b34801561038857600080fd5b506103a3600480360381019061039e91906131d5565b610ca3565b6040516103b09190613a1d565b60405180910390f35b3480156103c557600080fd5b506103ce610cd6565b6040516103db9190613b61565b60405180910390f35b3480156103f057600080fd5b5061040b600480360381019061040691906131d5565b610ef3565b6040516104189190613a1d565b60405180910390f35b34801561042d57600080fd5b50610448600480360381019061044391906131d5565b610fd2565b6040516104559190613e94565b60405180910390f35b34801561046a57600080fd5b5061048560048036038101906104809190612fd7565b610fea565b6040516104929190613e94565b60405180910390f35b3480156104a757600080fd5b506104c260048036038101906104bd91906131fe565b6110a2565b005b3480156104d057600080fd5b506104eb60048036038101906104e691906131d5565b611316565b005b3480156104f957600080fd5b506105026114eb565b60405161050f9190613b9e565b60405180910390f35b34801561052457600080fd5b5061053f600480360381019061053a919061310b565b611524565b005b34801561054d57600080fd5b50610568600480360381019061056391906131d5565b611621565b6040516105759190613a1d565b60405180910390f35b34801561058a57600080fd5b506105a560048036038101906105a09190613147565b611654565b005b6105c160048036038101906105bc91906131d5565b611676565b005b3480156105cf57600080fd5b506105d86118ba565b6040516105e59190613e94565b60405180910390f35b3480156105fa57600080fd5b506106156004803603810190610610919061308b565b6118bf565b005b34801561062357600080fd5b5061063e60048036038101906106399190612fd7565b611981565b60405161064b9190613e94565b60405180910390f35b34801561066057600080fd5b5061067b600480360381019061067691906131d5565b611999565b60405161068b9493929190613a38565b60405180910390f35b3480156106a057600080fd5b506106bb60048036038101906106b691906131d5565b6119f6565b6040516106c89190613e94565b60405180910390f35b3480156106dd57600080fd5b506106f860048036038101906106f39190612fd7565b611a6b565b6040516107059190613b61565b60405180910390f35b34801561071a57600080fd5b50610735600480360381019061073091906131fe565b611c62565b005b34801561074357600080fd5b5061075e60048036038101906107599190613000565b61202e565b60405161076b9190613b83565b60405180910390f35b34801561078057600080fd5b5061079b600480360381019061079691906131d5565b6121a1565b6040516107ac959493929190613eaf565b60405180910390f35b3480156107c157600080fd5b506107ca6122e2565b6040516107d79190613e94565b60405180910390f35b3480156107ec57600080fd5b50610807600480360381019061080291906131fe565b6122e8565b6040516108149190613b83565b60405180910390f35b60006380ac58cd60e01b7bffffffffffffffffffffffffffffffffffffffffffffffffffffffff1916827bffffffffffffffffffffffffffffffffffffffffffffffffffffffff191614806108b657506301ffc9a760e01b7bffffffffffffffffffffffffffffffffffffffffffffffffffffffff1916827bffffffffffffffffffffffffffffffffffffffffffffffffffffffff1916145b9050919050565b60056020528160005260406000206020528060005260406000206000915091509054906101000a900460ff1681565b6040518060400160405280600e81526020017f546865506f7765724f664d656f7700000000000000000000000000000000000081525081565b6000600180549050821061096e576040517f08c379a000000000000000000000000000000000000000000000000000000000815260040161096590613ca0565b60405180910390fd5b6004600083815260200190815260200160002060009054906101000a900473ffffffffffffffffffffffffffffffffffffffff169050919050565b6109b33382612341565b806109c457506109c333826123ad565b5b610a03576040517f08c379a00000000000000000000000000000000000000000000000000000000081526004016109fa90613df4565b60405180910390fd5b816004600083815260200190815260200160002060006101000a81548173ffffffffffffffffffffffffffffffffffffffff021916908373ffffffffffffffffffffffffffffffffffffffff160217905550808273ffffffffffffffffffffffffffffffffffffffff166003600084815260200190815260200160002060009054906101000a900473ffffffffffffffffffffffffffffffffffffffff1673ffffffffffffffffffffffffffffffffffffffff167f8c5be1e5ebec7d5bd14f71427d1e84f3dd0314c0f7b2291e5b200ac8c7c3b92560405160405180910390a45050565b6000600180549050905090565b610afe3382612341565b80610b0f5750610b0e338261247b565b5b80610b205750610b1f33826123ad565b5b610b5f576040517f08c379a0000000000000000000000000000000000000000000000000000000008152600401610b5690613df4565b60405180910390fd5b610b6a8383836124e7565b505050565b6000806000806007600086815260200190815260200160002060030160009054906101000a900460ff16610bd8576040517f08c379a0000000000000000000000000000000000000000000000000000000008152600401610bcf90613c20565b60405180910390fd5b6000600760008781526020019081526020016000206040518060800160405290816000820160009054906101000a900473ffffffffffffffffffffffffffffffffffffffff1673ffffffffffffffffffffffffffffffffffffffff1673ffffffffffffffffffffffffffffffffffffffff16815260200160018201548152602001600282015481526020016003820160009054906101000a900460ff161515151581525050905080600001518160200151826040015183606001519450945094509450509193509193565b60046020528060005260406000206000915054906101000a900473ffffffffffffffffffffffffffffffffffffffff1681565b6060600060068054905090506000811415610d6357600067ffffffffffffffff811115610d2c577f4e487b7100000000000000000000000000000000000000000000000000000000600052604160045260246000fd5b604051908082528060200260200182016040528015610d5a5781602001602082028036833780820191505090505b50915050610ef0565b60008167ffffffffffffffff811115610da5577f4e487b7100000000000000000000000000000000000000000000000000000000600052604160045260246000fd5b604051908082528060200260200182016040528015610dd35781602001602082028036833780820191505090505b50905060005b600680549050811015610ee95760068181548110610e20577f4e487b7100000000000000000000000000000000000000000000000000000000600052603260045260246000fd5b906000526020600020906004020160030160009054906101000a900460ff1615610ed65760068181548110610e7e577f4e487b7100000000000000000000000000000000000000000000000000000000600052603260045260246000fd5b906000526020600020906004020160020154828281518110610ec9577f4e487b7100000000000000000000000000000000000000000000000000000000600052603260045260246000fd5b6020026020010181815250505b8080610ee1906141b1565b915050610dd9565b5080925050505b90565b60008073ffffffffffffffffffffffffffffffffffffffff166003600084815260200190815260200160002060009054906101000a900473ffffffffffffffffffffffffffffffffffffffff1673ffffffffffffffffffffffffffffffffffffffff161415610f97576040517f08c379a0000000000000000000000000000000000000000000000000000000008152600401610f8e90613be0565b60405180910390fd5b6003600083815260200190815260200160002060009054906101000a900473ffffffffffffffffffffffffffffffffffffffff169050919050565b60086020528060005260406000206000915090505481565b60008073ffffffffffffffffffffffffffffffffffffffff168273ffffffffffffffffffffffffffffffffffffffff16141561105b576040517f08c379a000000000000000000000000000000000000000000000000000000000815260040161105290613c00565b60405180910390fd5b600260008373ffffffffffffffffffffffffffffffffffffffff1673ffffffffffffffffffffffffffffffffffffffff168152602001908152602001600020549050919050565b6110ac3382612341565b6110eb576040517f08c379a00000000000000000000000000000000000000000000000000000000081526004016110e290613d98565b60405180910390fd5b600015156007600083815260200190815260200160002060030160009054906101000a900460ff16151514611155576040517f08c379a000000000000000000000000000000000000000000000000000000000815260040161114c90613e14565b60405180910390fd5b61115f30826109a9565b600060405180608001604052803373ffffffffffffffffffffffffffffffffffffffff168152602001848152602001838152602001600115158152509050600681908060018154018082558091505060019003906000526020600020906004020160009091909190915060008201518160000160006101000a81548173ffffffffffffffffffffffffffffffffffffffff021916908373ffffffffffffffffffffffffffffffffffffffff160217905550602082015181600101556040820151816002015560608201518160030160006101000a81548160ff0219169083151502179055505050806007600084815260200190815260200160002060008201518160000160006101000a81548173ffffffffffffffffffffffffffffffffffffffff021916908373ffffffffffffffffffffffffffffffffffffffff160217905550602082015181600101556040820151816002015560608201518160030160006101000a81548160ff0219169083151502179055509050507fd99e4fad9ad6313b1feb588fa8e605e3a9873172f2024330c35dd2b4041a43863383604051611309929190613ce0565b60405180910390a1505050565b6113203382612341565b61135f576040517f08c379a000000000000000000000000000000000000000000000000000000000815260040161135690613c60565b60405180910390fd5b6000600760008381526020019081526020016000206040518060800160405290816000820160009054906101000a900473ffffffffffffffffffffffffffffffffffffffff1673ffffffffffffffffffffffffffffffffffffffff1673ffffffffffffffffffffffffffffffffffffffff16815260200160018201548152602001600282015481526020016003820160009054906101000a900460ff1615151515815250509050600081606001901515908115158152505060076000838152602001908152602001600020600080820160006101000a81549073ffffffffffffffffffffffffffffffffffffffff0219169055600182016000905560028201600090556003820160006101000a81549060ff021916905550506004600083815260200190815260200160002060006101000a81549073ffffffffffffffffffffffffffffffffffffffff02191690557fd99e4fad9ad6313b1feb588fa8e605e3a9873172f2024330c35dd2b4041a438633836040516114df929190613db8565b60405180910390a15050565b6040518060400160405280600481526020017f4d454f570000000000000000000000000000000000000000000000000000000081525081565b80600560003373ffffffffffffffffffffffffffffffffffffffff1673ffffffffffffffffffffffffffffffffffffffff16815260200190815260200160002060008473ffffffffffffffffffffffffffffffffffffffff1673ffffffffffffffffffffffffffffffffffffffff16815260200190815260200160002060006101000a81548160ff0219169083151502179055508173ffffffffffffffffffffffffffffffffffffffff163373ffffffffffffffffffffffffffffffffffffffff167f17307eab39ab6107e8899845ad3d59bd9653f200f220920489ca2b5937696c31836040516116159190613b83565b60405180910390a35050565b60036020528060005260406000206000915054906101000a900473ffffffffffffffffffffffffffffffffffffffff1681565b61165e3382612341565b61166757600080fd5b6116723383836124e7565b5050565b6000600760008381526020019081526020016000206040518060800160405290816000820160009054906101000a900473ffffffffffffffffffffffffffffffffffffffff1673ffffffffffffffffffffffffffffffffffffffff1673ffffffffffffffffffffffffffffffffffffffff16815260200160018201548152602001600282015481526020016003820160009054906101000a900460ff16151515158152505090508060600151611761576040517f08c379a000000000000000000000000000000000000000000000000000000000815260040161175890613e34565b60405180910390fd5b806020015134146117a7576040517f08c379a000000000000000000000000000000000000000000000000000000000815260040161179e90613cc0565b60405180910390fd5b600081606001901515908115158152505060076000838152602001908152602001600020600080820160006101000a81549073ffffffffffffffffffffffffffffffffffffffff0219169055600182016000905560028201600090556003820160006101000a81549060ff02191690555050611823338361282c565b806000015173ffffffffffffffffffffffffffffffffffffffff166108fc349081150290604051600060405180830381858888f1935050505015801561186d573d6000803e3d6000fd5b5061187d81600001513384610af4565b7fd99e4fad9ad6313b1feb588fa8e605e3a9873172f2024330c35dd2b4041a438633836040516118ae929190613d1c565b60405180910390a15050565b601e81565b6118c93384612341565b806118da57506118d9338461247b565b5b806118eb57506118ea33846123ad565b5b61192a576040517f08c379a000000000000000000000000000000000000000000000000000000000815260040161192190613df4565b60405180910390fd5b61197a85858585858080601f016020809104026020016040519081016040528093929190818152602001838380828437600081840152601f19601f82011690508083019250505050505050612910565b5050505050565b60026020528060005260406000206000915090505481565b60076020528060005260406000206000915090508060000160009054906101000a900473ffffffffffffffffffffffffffffffffffffffff16908060010154908060020154908060030160009054906101000a900460ff16905084565b6000601e60095410611a3d576040517f08c379a0000000000000000000000000000000000000000000000000000000008152600401611a3490613c40565b60405180910390fd5b60096000815480929190611a50906141b1565b9190505550611a6460008060008533612949565b9050919050565b60606000611a7883610fea565b90506000811415611afb57600067ffffffffffffffff811115611ac4577f4e487b7100000000000000000000000000000000000000000000000000000000600052604160045260246000fd5b604051908082528060200260200182016040528015611af25781602001602082028036833780820191505090505b50915050611c5d565b60008167ffffffffffffffff811115611b3d577f4e487b7100000000000000000000000000000000000000000000000000000000600052604160045260246000fd5b604051908082528060200260200182016040528015611b6b5781602001602082028036833780820191505090505b509050600080611b79610ae7565b905060005b818111611c54578673ffffffffffffffffffffffffffffffffffffffff166003600083815260200190815260200160002060009054906101000a900473ffffffffffffffffffffffffffffffffffffffff1673ffffffffffffffffffffffffffffffffffffffff161415611c415780848481518110611c26577f4e487b7100000000000000000000000000000000000000000000000000000000600052603260045260246000fd5b6020026020010181815250508280611c3d906141b1565b9350505b8080611c4c906141b1565b915050611b7e565b83955050505050505b919050565b80821415611ca5576040517f08c379a0000000000000000000000000000000000000000000000000000000008152600401611c9c90613d58565b60405180910390fd5b611caf3383612341565b8015611cc15750611cc03382612341565b5b611d00576040517f08c379a0000000000000000000000000000000000000000000000000000000008152600401611cf790613e54565b60405180910390fd5b611d6760018381548110611d3d577f4e487b7100000000000000000000000000000000000000000000000000000000600052603260045260246000fd5b906000526020600020906002020160010160109054906101000a900461ffff1661ffff16836122e8565b611da6576040517f08c379a0000000000000000000000000000000000000000000000000000000008152600401611d9d90613e74565b60405180910390fd5b600060018281548110611de2577f4e487b7100000000000000000000000000000000000000000000000000000000600052603260045260246000fd5b906000526020600020906002020160010160109054906101000a900461ffff1661ffff1660018481548110611e40577f4e487b7100000000000000000000000000000000000000000000000000000000600052603260045260246000fd5b906000526020600020906002020160010160109054906101000a900461ffff1661ffff161115611eda576001808481548110611ea5577f4e487b7100000000000000000000000000000000000000000000000000000000600052603260045260246000fd5b906000526020600020906002020160010160109054906101000a900461ffff16611ecf9190613f73565b61ffff169050611f46565b6001808381548110611f15577f4e487b7100000000000000000000000000000000000000000000000000000000600052603260045260246000fd5b906000526020600020906002020160010160109054906101000a900461ffff16611f3f9190613f73565b61ffff1690505b6000611fe860018581548110611f85577f4e487b7100000000000000000000000000000000000000000000000000000000600052603260045260246000fd5b90600052602060002090600202016000015460018581548110611fd1577f4e487b7100000000000000000000000000000000000000000000000000000000600052603260045260246000fd5b906000526020600020906002020160000154612ae7565b9050611ff78484848433612949565b5042600860008681526020019081526020016000208190555042600860008581526020019081526020016000208190555050505050565b60008073ffffffffffffffffffffffffffffffffffffffff168273ffffffffffffffffffffffffffffffffffffffff16141561209f576040517f08c379a000000000000000000000000000000000000000000000000000000000815260040161209690613bc0565b60405180910390fd5b600073ffffffffffffffffffffffffffffffffffffffff168373ffffffffffffffffffffffffffffffffffffffff16141561210f576040517f08c379a000000000000000000000000000000000000000000000000000000000815260040161210690613be0565b60405180910390fd5b600560008473ffffffffffffffffffffffffffffffffffffffff1673ffffffffffffffffffffffffffffffffffffffff16815260200190815260200160002060008373ffffffffffffffffffffffffffffffffffffffff1673ffffffffffffffffffffffffffffffffffffffff16815260200190815260200160002060009054906101000a900460ff16905092915050565b600080600080600080600187815481106121e4577f4e487b7100000000000000000000000000000000000000000000000000000000600052603260045260246000fd5b9060005260206000209060020201905060008160010160009054906101000a900467ffffffffffffffff1667ffffffffffffffff1611612259576040517f08c379a000000000000000000000000000000000000000000000000000000000815260040161225090613c80565b60405180910390fd5b806000015495508060010160009054906101000a900467ffffffffffffffff1667ffffffffffffffff1694508060010160089054906101000a900463ffffffff1663ffffffff16935080600101600c9054906101000a900463ffffffff1663ffffffff1692508060010160109054906101000a900461ffff1661ffff1691505091939590929450565b60095481565b600080600090506000600a85866122ff9190614032565b6123099190614032565b905060086000858152602001908152602001600020548161232a9190613fab565b42111561233657600191505b819250505092915050565b60008273ffffffffffffffffffffffffffffffffffffffff166003600084815260200190815260200160002060009054906101000a900473ffffffffffffffffffffffffffffffffffffffff1673ffffffffffffffffffffffffffffffffffffffff1614905092915050565b600060011515600560006003600086815260200190815260200160002060009054906101000a900473ffffffffffffffffffffffffffffffffffffffff1673ffffffffffffffffffffffffffffffffffffffff1673ffffffffffffffffffffffffffffffffffffffff16815260200190815260200160002060008573ffffffffffffffffffffffffffffffffffffffff1673ffffffffffffffffffffffffffffffffffffffff16815260200190815260200160002060009054906101000a900460ff16151514905092915050565b60008273ffffffffffffffffffffffffffffffffffffffff166004600084815260200190815260200160002060009054906101000a900473ffffffffffffffffffffffffffffffffffffffff1673ffffffffffffffffffffffffffffffffffffffff1614905092915050565b600073ffffffffffffffffffffffffffffffffffffffff168273ffffffffffffffffffffffffffffffffffffffff161415801561255057503073ffffffffffffffffffffffffffffffffffffffff168273ffffffffffffffffffffffffffffffffffffffff1614155b61258f576040517f08c379a000000000000000000000000000000000000000000000000000000000815260040161258690613d78565b60405180910390fd5b60018054905081106125d6576040517f08c379a00000000000000000000000000000000000000000000000000000000081526004016125cd90613ca0565b60405180910390fd5b600260008373ffffffffffffffffffffffffffffffffffffffff1673ffffffffffffffffffffffffffffffffffffffff1681526020019081526020016000206000815480929190612626906141b1565b9190505550600073ffffffffffffffffffffffffffffffffffffffff168373ffffffffffffffffffffffffffffffffffffffff16146126eb57600260008473ffffffffffffffffffffffffffffffffffffffff1673ffffffffffffffffffffffffffffffffffffffff16815260200190815260200160002060008154809291906126af90614187565b91905055506004600082815260200190815260200160002060006101000a81549073ffffffffffffffffffffffffffffffffffffffff02191690555b816003600083815260200190815260200160002060006101000a81548173ffffffffffffffffffffffffffffffffffffffff021916908373ffffffffffffffffffffffffffffffffffffffff160217905550808273ffffffffffffffffffffffffffffffffffffffff168473ffffffffffffffffffffffffffffffffffffffff167fddf252ad1be2c89b69c2b068fc378daa952ba7f163c4a11628f55a4df523b3ef60405160405180910390a480600073ffffffffffffffffffffffffffffffffffffffff166003600084815260200190815260200160002060009054906101000a900473ffffffffffffffffffffffffffffffffffffffff1673ffffffffffffffffffffffffffffffffffffffff167f8c5be1e5ebec7d5bd14f71427d1e84f3dd0314c0f7b2291e5b200ac8c7c3b92560405160405180910390a4505050565b816004600083815260200190815260200160002060006101000a81548173ffffffffffffffffffffffffffffffffffffffff021916908373ffffffffffffffffffffffffffffffffffffffff160217905550808273ffffffffffffffffffffffffffffffffffffffff166003600084815260200190815260200160002060009054906101000a900473ffffffffffffffffffffffffffffffffffffffff1673ffffffffffffffffffffffffffffffffffffffff167f8c5be1e5ebec7d5bd14f71427d1e84f3dd0314c0f7b2291e5b200ac8c7c3b92560405160405180910390a45050565b61291a8483612341565b61292357600080fd5b61292e8484846124e7565b61293a84848484612df1565b61294357600080fd5b50505050565b6000806040518060a001604052808581526020014267ffffffffffffffff1681526020018863ffffffff1681526020018763ffffffff1681526020018661ffff16815250905060018190806001815401808255809150506001900390600052602060002090600202016000909190919091506000820151816000015560208201518160010160006101000a81548167ffffffffffffffff021916908367ffffffffffffffff16021790555060408201518160010160086101000a81548163ffffffff021916908363ffffffff160217905550606082015181600101600c6101000a81548163ffffffff021916908363ffffffff16021790555060808201518160010160106101000a81548161ffff021916908361ffff1602179055505050600060018080549050612a7a919061408c565b90508063ffffffff168114612a8e57600080fd5b7f0a5311bd2a6608f08a180df2ee7c5946819a649b204b554bb8e39825b2c50ad584828a8a89604051612ac5959493929190613b0e565b60405180910390a1612ad9600085836124e7565b809250505095945050505050565b60008060006001905060008542604051602001612b059291906139b4565b6040516020818303038152906040528051906020012060001c905060008542604051602001612b359291906139b4565b6040516020818303038152906040528051906020012060001c90506000878742604051602001612b67939291906139e0565b6040516020818303038152906040528051906020012060001c905060005b600a811015612de2576000811480612b9d5750600181145b80612ba85750600481145b80612bb35750600581145b15612caf576000600285612bc79190614204565b1415612bf75784600a8a612bdb9190614204565b612be59190614032565b86612bf09190613fab565b9550612c7d565b6000600285612c069190614204565b14612c355784600a89612c199190614204565b612c239190614032565b86612c2e9190613fab565b9550612c7c565b6007600a83612c449190614204565b1415612c7b5784600a89612c589190614204565b8a612c639190613fab565b612c6d9190614032565b86612c789190613fab565b95505b5b5b600a89612c8a9190614001565b9850600a88612c999190614001565b9750600a85612ca89190614032565b9450612da2565b6000600284612cbe9190614204565b1415612cee5784606489612cd29190614204565b612cdc9190614032565b86612ce79190613fab565b9550612d74565b6000600284612cfd9190614204565b14612d2c578460648a612d109190614204565b612d1a9190614032565b86612d259190613fab565b9550612d73565b6009600a83612d3b9190614204565b1415612d725784606489612d4f9190614204565b8a612d5a9190613fab565b612d649190614032565b86612d6f9190613fab565b95505b5b5b606489612d819190614001565b9850606488612d909190614001565b9750606485612d9f9190614032565b94505b600a84612daf9190614001565b9350600a83612dbe9190614001565b9250600a82612dcd9190614001565b91508080612dda906141b1565b915050612b85565b50849550505050505092915050565b6000612dfc84612f0b565b612e095760019050612f03565b60008473ffffffffffffffffffffffffffffffffffffffff1663150b7a02338887876040518563ffffffff1660e01b8152600401612e4a9493929190613a7d565b602060405180830381600087803b158015612e6457600080fd5b505af1158015612e78573d6000803e3d6000fd5b505050506040513d601f19601f82011682018060405250810190612e9c91906131ac565b90507f150b7a023d4804d13e8c85fb27262cb750cf6ba9f9dd3bb30d90f482ceeb4b1f7bffffffffffffffffffffffffffffffffffffffffffffffffffffffff1916817bffffffffffffffffffffffffffffffffffffffffffffffffffffffff1916149150505b949350505050565b600080823b905060008163ffffffff1611915050919050565b600081359050612f33816142a4565b92915050565b600081359050612f48816142bb565b92915050565b600081359050612f5d816142d2565b92915050565b600081519050612f72816142d2565b92915050565b60008083601f840112612f8a57600080fd5b8235905067ffffffffffffffff811115612fa357600080fd5b602083019150836001820283011115612fbb57600080fd5b9250929050565b600081359050612fd1816142e9565b92915050565b600060208284031215612fe957600080fd5b6000612ff784828501612f24565b91505092915050565b6000806040838503121561301357600080fd5b600061302185828601612f24565b925050602061303285828601612f24565b9150509250929050565b60008060006060848603121561305157600080fd5b600061305f86828701612f24565b935050602061307086828701612f24565b925050604061308186828701612fc2565b9150509250925092565b6000806000806000608086880312156130a357600080fd5b60006130b188828901612f24565b95505060206130c288828901612f24565b94505060406130d388828901612fc2565b935050606086013567ffffffffffffffff8111156130f057600080fd5b6130fc88828901612f78565b92509250509295509295909350565b6000806040838503121561311e57600080fd5b600061312c85828601612f24565b925050602061313d85828601612f39565b9150509250929050565b6000806040838503121561315a57600080fd5b600061316885828601612f24565b925050602061317985828601612fc2565b9150509250929050565b60006020828403121561319557600080fd5b60006131a384828501612f4e565b91505092915050565b6000602082840312156131be57600080fd5b60006131cc84828501612f63565b91505092915050565b6000602082840312156131e757600080fd5b60006131f584828501612fc2565b91505092915050565b6000806040838503121561321157600080fd5b600061321f85828601612fc2565b925050602061323085828601612fc2565b9150509250929050565b6000613246838361397f565b60208301905092915050565b61325b816140d2565b82525050565b61326a816140c0565b82525050565b600061327b82613f12565b6132858185613f40565b935061329083613f02565b8060005b838110156132c15781516132a8888261323a565b97506132b383613f33565b925050600181019050613294565b5085935050505092915050565b6132d7816140e4565b82525050565b60006132e882613f1d565b6132f28185613f51565b9350613302818560208601614154565b61330b81614293565b840191505092915050565b600061332182613f28565b61332b8185613f62565b935061333b818560208601614154565b61334481614293565b840191505092915050565b600061335c602d83613f62565b91507f5a65726f20616464726573732063616e6e6f7420626520616e20617574686f7260008301527f697a6564206f70657261746f72000000000000000000000000000000000000006020830152604082019050919050565b60006133c2601e83613f62565b91507f5a65726f20616464726573732063616e6e6f74206f776e20746f6b656e7300006000830152602082019050919050565b6000613402601f83613f62565b91507f5a65726f2061646472657373206973206e6f742076616c6964206f776e6572006000830152602082019050919050565b6000613442602783613f62565b91507f5468657265206973206e6f20616374697665206f6666657220666f722074686960008301527f73206b69747479000000000000000000000000000000000000000000000000006020830152604082019050919050565b60006134a8601a83613f62565b91507f4d6178696d756d2047656e30206c696d697420726561636865640000000000006000830152602082019050919050565b60006134e8602883613f62565b91507f596f75206d75737420626520746865206f776e657220746f2072656d6f76652060008301527f616e206f666665720000000000000000000000000000000000000000000000006020830152604082019050919050565b600061354e601483613f62565b91507f546f6b656e20646f6573206e6f742065786973740000000000000000000000006000830152602082019050919050565b600061358e601083613f62565b91507f496e76616c696420546f6b656e204944000000000000000000000000000000006000830152602082019050919050565b60006135ce601c83613f62565b91507f5472616e7366657220616d6f756e7420697320696e636f7272656374000000006000830152602082019050919050565b600061360e600c83613f62565b91507f437265617465206f6666657200000000000000000000000000000000000000006000830152602082019050919050565b600061364e600383613f62565b91507f42757900000000000000000000000000000000000000000000000000000000006000830152602082019050919050565b600061368e602183613f62565b91507f436174732063616e6e6f742062726565642077697468207468656d73656c766560008301527f73000000000000000000000000000000000000000000000000000000000000006020830152604082019050919050565b60006136f4601983613f62565b91507f496e76616c696420726563697069656e742061646472657373000000000000006000830152602082019050919050565b6000613734602883613f62565b91507f596f75206d75737420626520746865206f776e657220746f206372656174652060008301527f616e206f666665720000000000000000000000000000000000000000000000006020830152604082019050919050565b600061379a600c83613f62565b91507f52656d6f7665206f6666657200000000000000000000000000000000000000006000830152602082019050919050565b60006137da601083613f62565b91507f496e76616c6964206f70657261746f72000000000000000000000000000000006000830152602082019050919050565b600061381a602f83613f62565b91507f546865726520697320616c726561647920616e20616374697665206f6666657260008301527f20666f722074686973206b6974747900000000000000000000000000000000006020830152604082019050919050565b6000613880601a83613f62565b91507f54686973206b69747479206973206e6f7420666f722073616c650000000000006000830152602082019050919050565b60006138c0603c83613f62565b91507f596f75206e656564207065726d697373696f6e20746f20627265656420796f7560008301527f7220636174207769746820616e6f7468657220757365727320636174000000006020830152604082019050919050565b6000613926602183613f62565b91507f546865206d6174726f6e206d75737420626520726561647920746f206272656560008301527f64000000000000000000000000000000000000000000000000000000000000006020830152604082019050919050565b6139888161414a565b82525050565b6139978161414a565b82525050565b6139ae6139a98261414a565b6141fa565b82525050565b60006139c0828561399d565b6020820191506139d0828461399d565b6020820191508190509392505050565b60006139ec828661399d565b6020820191506139fc828561399d565b602082019150613a0c828461399d565b602082019150819050949350505050565b6000602082019050613a326000830184613261565b92915050565b6000608082019050613a4d6000830187613252565b613a5a602083018661398e565b613a67604083018561398e565b613a7460608301846132ce565b95945050505050565b6000608082019050613a926000830187613261565b613a9f6020830186613261565b613aac604083018561398e565b8181036060830152613abe81846132dd565b905095945050505050565b6000608082019050613ade6000830187613261565b613aeb602083018661398e565b613af8604083018561398e565b613b0560608301846132ce565b95945050505050565b600060a082019050613b236000830188613261565b613b30602083018761398e565b613b3d604083018661398e565b613b4a606083018561398e565b613b57608083018461398e565b9695505050505050565b60006020820190508181036000830152613b7b8184613270565b905092915050565b6000602082019050613b9860008301846132ce565b92915050565b60006020820190508181036000830152613bb88184613316565b905092915050565b60006020820190508181036000830152613bd98161334f565b9050919050565b60006020820190508181036000830152613bf9816133b5565b9050919050565b60006020820190508181036000830152613c19816133f5565b9050919050565b60006020820190508181036000830152613c3981613435565b9050919050565b60006020820190508181036000830152613c598161349b565b9050919050565b60006020820190508181036000830152613c79816134db565b9050919050565b60006020820190508181036000830152613c9981613541565b9050919050565b60006020820190508181036000830152613cb981613581565b9050919050565b60006020820190508181036000830152613cd9816135c1565b9050919050565b60006060820190508181036000830152613cf981613601565b9050613d086020830185613261565b613d15604083018461398e565b9392505050565b60006060820190508181036000830152613d3581613641565b9050613d446020830185613261565b613d51604083018461398e565b9392505050565b60006020820190508181036000830152613d7181613681565b9050919050565b60006020820190508181036000830152613d91816136e7565b9050919050565b60006020820190508181036000830152613db181613727565b9050919050565b60006060820190508181036000830152613dd18161378d565b9050613de06020830185613261565b613ded604083018461398e565b9392505050565b60006020820190508181036000830152613e0d816137cd565b9050919050565b60006020820190508181036000830152613e2d8161380d565b9050919050565b60006020820190508181036000830152613e4d81613873565b9050919050565b60006020820190508181036000830152613e6d816138b3565b9050919050565b60006020820190508181036000830152613e8d81613919565b9050919050565b6000602082019050613ea9600083018461398e565b92915050565b600060a082019050613ec4600083018861398e565b613ed1602083018761398e565b613ede604083018661398e565b613eeb606083018561398e565b613ef8608083018461398e565b9695505050505050565b6000819050602082019050919050565b600081519050919050565b600081519050919050565b600081519050919050565b6000602082019050919050565b600082825260208201905092915050565b600082825260208201905092915050565b600082825260208201905092915050565b6000613f7e8261411c565b9150613f898361411c565b92508261ffff03821115613fa057613f9f614235565b5b828201905092915050565b6000613fb68261414a565b9150613fc18361414a565b9250827fffffffffffffffffffffffffffffffffffffffffffffffffffffffffffffffff03821115613ff657613ff5614235565b5b828201905092915050565b600061400c8261414a565b91506140178361414a565b92508261402757614026614264565b5b828204905092915050565b600061403d8261414a565b91506140488361414a565b9250817fffffffffffffffffffffffffffffffffffffffffffffffffffffffffffffffff048311821515161561408157614080614235565b5b828202905092915050565b60006140978261414a565b91506140a28361414a565b9250828210156140b5576140b4614235565b5b828203905092915050565b60006140cb8261412a565b9050919050565b60006140dd8261412a565b9050919050565b60008115159050919050565b60007fffffffff0000000000000000000000000000000000000000000000000000000082169050919050565b600061ffff82169050919050565b600073ffffffffffffffffffffffffffffffffffffffff82169050919050565b6000819050919050565b60005b83811015614172578082015181840152602081019050614157565b83811115614181576000848401525b50505050565b60006141928261414a565b915060008214156141a6576141a5614235565b5b600182039050919050565b60006141bc8261414a565b91507fffffffffffffffffffffffffffffffffffffffffffffffffffffffffffffffff8214156141ef576141ee614235565b5b600182019050919050565b6000819050919050565b600061420f8261414a565b915061421a8361414a565b92508261422a57614229614264565b5b828206905092915050565b7f4e487b7100000000000000000000000000000000000000000000000000000000600052601160045260246000fd5b7f4e487b7100000000000000000000000000000000000000000000000000000000600052601260045260246000fd5b6000601f19601f8301169050919050565b6142ad816140c0565b81146142b857600080fd5b50565b6142c4816140e4565b81146142cf57600080fd5b50565b6142db816140f0565b81146142e657600080fd5b50565b6142f28161414a565b81146142fd57600080fd5b5056fea2646970667358221220b01cd80cb0a98bd9203410e350eda08d02a528b8a2561a3af6267e21d6fe250c64736f6c63430008000033",
  "immutableReferences": {},
  "source": "pragma solidity 0.8.0;\n\nimport \"./Ownable.sol\";\nimport \"./KittyMarketplace.sol\";\n\ncontract Kittycontract is Ownable, KittyMarketplace {\n\n  mapping(uint256 => uint256) public lastBreedTime;\n\n  uint256 public constant CREATION_LIMIT_GEN0 = 30;\n  uint256 public gen0Counter = 0;\n\n  //constructor - create a cat and give it to deployer\n  constructor() {\n    createKittyGen0(101010101110101);\n  }\n\n  function createKittyGen0(uint256 _genes) public returns (uint256 id){\n    require(gen0Counter < CREATION_LIMIT_GEN0, \"Maximum Gen0 limit reached\");\n    gen0Counter++;\n    return _createKitty(0, 0, 0, _genes, msg.sender);\n  }\n\n  function breed(uint256 matronId, uint256 sireId) public {\n    require(matronId != sireId, \"Cats cannot breed with themselves\");\n    require(_owns(msg.sender, matronId) && _owns(msg.sender, sireId),\n      \"You need permission to breed your cat with another users cat\");\n    require(checkFertility(kitties[matronId].generation, matronId), \"The matron must be ready to breed\");\n\n    uint256 newGeneration;\n    if(kitties[matronId].generation > kitties[sireId].generation) {\n        newGeneration = kitties[matronId].generation + 1;\n    } else {\n        newGeneration = kitties[sireId].generation + 1;\n    }\n    uint256 newGenes = mixDna(kitties[matronId].genes, kitties[sireId].genes);\n    _createKitty(matronId, sireId, newGeneration, newGenes, msg.sender);\n    lastBreedTime[matronId] = block.timestamp;\n    lastBreedTime[sireId] = block.timestamp;\n  }\n\n  function checkFertility(uint256 generation, uint256 kittyId) public view returns(bool) {\n    bool readyToBreed = false;\n    uint256 cooldownTime = (generation * generation * 10);\n    if(block.timestamp > cooldownTime + lastBreedTime[kittyId]) {\n      readyToBreed = true;\n    }\n    return readyToBreed;\n  }\n\n  function mixDna(uint256 matronDna, uint256 sireDna) internal view returns(uint256){\n    uint256 newGenes;\n    uint256 placeMaker = 1;\n    uint256 rando1 = uint256(keccak256(abi.encodePacked(matronDna, block.timestamp)));\n    uint256 rando2 = uint256(keccak256(abi.encodePacked(sireDna, block.timestamp)));\n    uint256 rando3 = uint256(keccak256(abi.encodePacked(matronDna, sireDna, block.timestamp)));\n    for(uint256 i = 0; i < 10; i++){\n      if(i == 0 || i == 1 || i == 4 || i == 5){\n        if(rando1 % 2 == 0){\n          newGenes = newGenes + ((matronDna % 10) * placeMaker);\n        }\n        else if(rando1 % 2 != 0){\n          newGenes = newGenes + ((sireDna % 10) * placeMaker);\n        }\n        else if(rando3 % 10 == 7) {\n          newGenes = newGenes + ((matronDna + sireDna % 10) * placeMaker);\n        }\n        matronDna /= 10;\n        sireDna /= 10;\n        placeMaker *= 10;\n      }\n      else {\n        if(rando2 % 2 == 0){\n          newGenes = newGenes + ((sireDna % 100) * placeMaker);\n        }\n        else if(rando2 % 2 != 0){\n          newGenes = newGenes + ((matronDna % 100) * placeMaker);\n        }\n        else if(rando3 % 10 == 9) {\n          newGenes = newGenes + ((matronDna + sireDna % 100) * placeMaker);\n        }\n        matronDna /= 100;\n        sireDna /= 100;\n      placeMaker *= 100;\n      }\n      rando1 /= 10;\n      rando2 /= 10;\n      rando3 /= 10;\n    }\n    return newGenes;\n  }\n\n}\n",
  "sourcePath": "/Users/attissngo/Documents/ThePowerOfMeow/contracts/Kittycontract.sol",
  "compiler": {
    "name": "solc",
    "version": "0.8.0+commit.c7dfd78e.Emscripten.clang"
  },
  "schemaVersion": "3.4.3",
  "updatedAt": "2021-12-27T13:37:17.217Z",
  "networkType": "ethereum",
  "devdoc": {
    "kind": "dev",
    "methods": {},
    "version": 1
  },
  "userdoc": {
    "kind": "user",
    "methods": {},
    "version": 1
  }
}